{
  "_format": "hh-sol-artifact-1",
  "contractName": "BlockTalkContract",
  "sourceName": "contracts/BlockTalk.sol",
  "abi": [
    {
      "inputs": [
        {
          "internalType": "contract BlockTalkToken",
          "name": "_token",
          "type": "address"
        }
      ],
      "stateMutability": "nonpayable",
      "type": "constructor"
    },
    {
      "anonymous": false,
      "inputs": [
        {
          "indexed": false,
          "internalType": "address",
          "name": "recipient",
          "type": "address"
        },
        {
          "indexed": false,
          "internalType": "uint256",
          "name": "tweetId",
          "type": "uint256"
        }
      ],
      "name": "AddTweet",
      "type": "event"
    },
    {
      "anonymous": false,
      "inputs": [
        {
          "indexed": false,
          "internalType": "uint256",
          "name": "tweetId",
          "type": "uint256"
        },
        {
          "indexed": false,
          "internalType": "bool",
          "name": "isDeleted",
          "type": "bool"
        }
      ],
      "name": "DeleteTweet",
      "type": "event"
    },
    {
      "anonymous": false,
      "inputs": [
        {
          "indexed": false,
          "internalType": "uint256",
          "name": "tweetId",
          "type": "uint256"
        },
        {
          "indexed": false,
          "internalType": "uint256",
          "name": "reward",
          "type": "uint256"
        }
      ],
      "name": "Rewards",
      "type": "event"
    },
    {
      "anonymous": false,
      "inputs": [
        {
          "indexed": true,
          "internalType": "address",
          "name": "user",
          "type": "address"
        },
        {
          "indexed": false,
          "internalType": "uint256",
          "name": "tweetId",
          "type": "uint256"
        },
        {
          "indexed": false,
          "internalType": "bool",
          "name": "isUpvote",
          "type": "bool"
        }
      ],
      "name": "Vote",
      "type": "event"
    },
    {
      "inputs": [],
      "name": "REWARD_DIFF",
      "outputs": [
        {
          "internalType": "uint256",
          "name": "",
          "type": "uint256"
        }
      ],
      "stateMutability": "view",
      "type": "function"
    },
    {
      "inputs": [
        {
          "internalType": "string",
          "name": "title",
          "type": "string"
        },
        {
          "internalType": "string",
          "name": "tweetText",
          "type": "string"
        },
        {
          "internalType": "bool",
          "name": "isDeleted",
          "type": "bool"
        }
      ],
      "name": "addTweet",
      "outputs": [],
      "stateMutability": "nonpayable",
      "type": "function"
    },
    {
      "inputs": [
        {
          "internalType": "uint256",
          "name": "tweetId",
          "type": "uint256"
        },
        {
          "internalType": "bool",
          "name": "isDeleted",
          "type": "bool"
        }
      ],
      "name": "deleteTweet",
      "outputs": [],
      "stateMutability": "nonpayable",
      "type": "function"
    },
    {
      "inputs": [
        {
          "internalType": "uint256",
          "name": "tweetId",
          "type": "uint256"
        }
      ],
      "name": "downvote",
      "outputs": [],
      "stateMutability": "nonpayable",
      "type": "function"
    },
    {
      "inputs": [],
      "name": "getAllTweets",
      "outputs": [
        {
          "components": [
            {
              "internalType": "uint256",
              "name": "id",
              "type": "uint256"
            },
            {
              "internalType": "address",
              "name": "username",
              "type": "address"
            },
            {
              "internalType": "string",
              "name": "title",
              "type": "string"
            },
            {
              "internalType": "string",
              "name": "tweetText",
              "type": "string"
            },
            {
              "internalType": "bool",
              "name": "isDeleted",
              "type": "bool"
            },
            {
              "internalType": "uint256",
              "name": "upvote",
              "type": "uint256"
            },
            {
              "internalType": "uint256",
              "name": "downvote",
              "type": "uint256"
            },
            {
              "internalType": "uint256",
              "name": "time",
              "type": "uint256"
            },
            {
              "internalType": "uint256",
              "name": "reward",
              "type": "uint256"
            }
          ],
          "internalType": "struct BlockTalkContract.TweetView[]",
          "name": "",
          "type": "tuple[]"
        }
      ],
      "stateMutability": "view",
      "type": "function"
    },
    {
      "inputs": [],
      "name": "getTrendingTweets",
      "outputs": [
        {
          "components": [
            {
              "internalType": "uint256",
              "name": "id",
              "type": "uint256"
            },
            {
              "internalType": "address",
              "name": "username",
              "type": "address"
            },
            {
              "internalType": "string",
              "name": "title",
              "type": "string"
            },
            {
              "internalType": "string",
              "name": "tweetText",
              "type": "string"
            },
            {
              "internalType": "bool",
              "name": "isDeleted",
              "type": "bool"
            },
            {
              "internalType": "uint256",
              "name": "upvote",
              "type": "uint256"
            },
            {
              "internalType": "uint256",
              "name": "downvote",
              "type": "uint256"
            },
            {
              "internalType": "uint256",
              "name": "time",
              "type": "uint256"
            },
            {
              "internalType": "uint256",
              "name": "reward",
              "type": "uint256"
            }
          ],
          "internalType": "struct BlockTalkContract.TweetView[]",
          "name": "",
          "type": "tuple[]"
        }
      ],
      "stateMutability": "view",
      "type": "function"
    },
    {
      "inputs": [],
      "name": "getUserDetails",
      "outputs": [
        {
          "internalType": "address",
          "name": "username",
          "type": "address"
        },
        {
          "internalType": "uint256",
          "name": "totalTokens",
          "type": "uint256"
        },
        {
          "internalType": "uint256[]",
          "name": "nftIds",
          "type": "uint256[]"
        }
      ],
      "stateMutability": "view",
      "type": "function"
    },
    {
      "inputs": [
        {
          "internalType": "string",
          "name": "",
          "type": "string"
        },
        {
          "internalType": "uint256",
          "name": "",
          "type": "uint256"
        }
      ],
      "name": "hashtags",
      "outputs": [
        {
          "internalType": "uint256",
          "name": "",
          "type": "uint256"
        }
      ],
      "stateMutability": "view",
      "type": "function"
    },
    {
      "inputs": [],
      "name": "token",
      "outputs": [
        {
          "internalType": "contract BlockTalkToken",
          "name": "",
          "type": "address"
        }
      ],
      "stateMutability": "view",
      "type": "function"
    },
    {
      "inputs": [
        {
          "internalType": "address",
          "name": "userAddress",
          "type": "address"
        },
        {
          "internalType": "uint256",
          "name": "amount",
          "type": "uint256"
        }
      ],
      "name": "updateUserTokenBalance",
      "outputs": [],
      "stateMutability": "nonpayable",
      "type": "function"
    },
    {
      "inputs": [
        {
          "internalType": "uint256",
          "name": "tweetId",
          "type": "uint256"
        }
      ],
      "name": "upvote",
      "outputs": [],
      "stateMutability": "nonpayable",
      "type": "function"
    }
  ],
  "bytecode": "0x60806040523480156200001157600080fd5b5060405162002629380380620026298339818101604052810190620000379190620000fc565b806000806101000a81548173ffffffffffffffffffffffffffffffffffffffff021916908373ffffffffffffffffffffffffffffffffffffffff160217905550506200012e565b600080fd5b600073ffffffffffffffffffffffffffffffffffffffff82169050919050565b6000620000b08262000083565b9050919050565b6000620000c482620000a3565b9050919050565b620000d681620000b7565b8114620000e257600080fd5b50565b600081519050620000f681620000cb565b92915050565b6000602082840312156200011557620001146200007e565b5b60006200012584828501620000e5565b91505092915050565b6124eb806200013e6000396000f3fe608060405234801561001057600080fd5b50600436106100a95760003560e01c8063b5a989e811610071578063b5a989e814610156578063ba4237f814610172578063bb87e1881461018e578063f0312a37146101ac578063f31fdad4146101c8578063fc0c546a146101e4576100a9565b806301ddf070146100ae57806353256135146100ca57806371d1c48c146100e8578063942886be146101185780639c1fa1f314610138575b600080fd5b6100c860048036038101906100c391906115c2565b610202565b005b6100d26103d2565b6040516100df9190611878565b60405180910390f35b61010260048036038101906100fd91906119cf565b6106fd565b60405161010f9190611a3a565b60405180910390f35b610120610744565b60405161012f93929190611b13565b60405180910390f35b6101406108aa565b60405161014d9190611a3a565b60405180910390f35b610170600480360381019061016b9190611b7d565b6108af565b005b61018c60048036038101906101879190611c34565b610b39565b005b610196610cec565b6040516101a39190611878565b60405180910390f35b6101c660048036038101906101c19190611c74565b61100d565b005b6101e260048036038101906101dd91906115c2565b611135565b005b6101ec6112fc565b6040516101f99190611d13565b60405180910390f35b6001805490508110610249576040517f08c379a000000000000000000000000000000000000000000000000000000000815260040161024090611d8b565b60405180910390fd5b60006001828154811061025f5761025e611dab565b5b90600052602060002090600a020190508060050160003373ffffffffffffffffffffffffffffffffffffffff1673ffffffffffffffffffffffffffffffffffffffff16815260200190815260200160002060009054906101000a900460ff16156102fe576040517f08c379a00000000000000000000000000000000000000000000000000000000081526004016102f590611e4c565b60405180910390fd5b60018160050160003373ffffffffffffffffffffffffffffffffffffffff1673ffffffffffffffffffffffffffffffffffffffff16815260200190815260200160002060006101000a81548160ff021916908315150217905550600181600601600082825461036d9190611e9b565b925050819055503373ffffffffffffffffffffffffffffffffffffffff167f8d85a70fd2c5d140a4a01143492d27ff82cfad4cead313e66c53f39b0feb5e0f8360016040516103bd929190611ede565b60405180910390a26103ce82611320565b5050565b60606000805b60018054905081101561043857600181815481106103f9576103f8611dab565b5b90600052602060002090600a020160040160009054906101000a900460ff1661042b57818061042790611f07565b9250505b80806001019150506103d8565b5060008167ffffffffffffffff811115610455576104546118a4565b5b60405190808252806020026020018201604052801561048e57816020015b61047b611514565b8152602001906001900390816104735790505b5090506000805b6001805490508110156106f357600181815481106104b6576104b5611dab565b5b90600052602060002090600a020160040160009054906101000a900460ff166106e6576000600182815481106104ef576104ee611dab565b5b90600052602060002090600a02019050604051806101200160405280826000015481526020018260010160009054906101000a900473ffffffffffffffffffffffffffffffffffffffff1673ffffffffffffffffffffffffffffffffffffffff16815260200182600201805461056490611f7e565b80601f016020809104026020016040519081016040528092919081815260200182805461059090611f7e565b80156105dd5780601f106105b2576101008083540402835291602001916105dd565b820191906000526020600020905b8154815290600101906020018083116105c057829003601f168201915b505050505081526020018260030180546105f690611f7e565b80601f016020809104026020016040519081016040528092919081815260200182805461062290611f7e565b801561066f5780601f106106445761010080835404028352916020019161066f565b820191906000526020600020905b81548152906001019060200180831161065257829003601f168201915b505050505081526020018260040160009054906101000a900460ff161515815260200182600601548152602001826007015481526020018260080154815260200182600901548152508484815181106106cb576106ca611dab565b5b602002602001018190525082806106e190611f07565b935050505b8080600101915050610495565b5081935050505090565b600482805160208101820180518482526020830160208501208183528095505050505050818154811061072f57600080fd5b90600052602060002001600091509150505481565b60008060606000600260003373ffffffffffffffffffffffffffffffffffffffff1673ffffffffffffffffffffffffffffffffffffffff16815260200190815260200160002090503373ffffffffffffffffffffffffffffffffffffffff168160000160009054906101000a900473ffffffffffffffffffffffffffffffffffffffff1673ffffffffffffffffffffffffffffffffffffffff161461081e576040517f08c379a000000000000000000000000000000000000000000000000000000000815260040161081590612021565b60405180910390fd5b8060000160009054906101000a900473ffffffffffffffffffffffffffffffffffffffff168160010154826002018080548060200260200160405190810160405280929190818152602001828054801561089757602002820191906000526020600020905b815481526020019060010190808311610883575b5050505050905093509350935050909192565b600381565b600060018054905090506000600180816001815401808255809150500390600052602060002090600a02019050818160000181905550338160010160006101000a81548173ffffffffffffffffffffffffffffffffffffffff021916908373ffffffffffffffffffffffffffffffffffffffff1602179055508481600201908161093991906121e3565b508381600301908161094b91906121e3565b50828160040160006101000a81548160ff021916908315150217905550600181600601819055506000816007018190555042816008018190555060008160090181905550336003600084815260200190815260200160002060006101000a81548173ffffffffffffffffffffffffffffffffffffffff021916908373ffffffffffffffffffffffffffffffffffffffff160217905550600073ffffffffffffffffffffffffffffffffffffffff16600260003373ffffffffffffffffffffffffffffffffffffffff1673ffffffffffffffffffffffffffffffffffffffff16815260200190815260200160002060000160009054906101000a900473ffffffffffffffffffffffffffffffffffffffff1673ffffffffffffffffffffffffffffffffffffffff1603610af95733600260003373ffffffffffffffffffffffffffffffffffffffff1673ffffffffffffffffffffffffffffffffffffffff16815260200190815260200160002060000160006101000a81548173ffffffffffffffffffffffffffffffffffffffff021916908373ffffffffffffffffffffffffffffffffffffffff1602179055505b7f8b2db9b424f26463510ef5b02c16f2465836b52081b51d2112ec76102053bdea3383604051610b2a9291906122b5565b60405180910390a15050505050565b600073ffffffffffffffffffffffffffffffffffffffff16600260008473ffffffffffffffffffffffffffffffffffffffff1673ffffffffffffffffffffffffffffffffffffffff16815260200190815260200160002060000160009054906101000a900473ffffffffffffffffffffffffffffffffffffffff1673ffffffffffffffffffffffffffffffffffffffff1603610c0a576040517f08c379a0000000000000000000000000000000000000000000000000000000008152600401610c019061232a565b60405180910390fd5b80600260008473ffffffffffffffffffffffffffffffffffffffff1673ffffffffffffffffffffffffffffffffffffffff168152602001908152602001600020600101541015610c8f576040517f08c379a0000000000000000000000000000000000000000000000000000000008152600401610c8690612396565b60405180910390fd5b80600260008473ffffffffffffffffffffffffffffffffffffffff1673ffffffffffffffffffffffffffffffffffffffff1681526020019081526020016000206001016000828254610ce191906123b6565b925050819055505050565b6060600080600090505b600180549050811015610d4d57600560018281548110610d1957610d18611dab565b5b90600052602060002090600a0201600601541115610d40578180610d3c90611f07565b9250505b8080600101915050610cf6565b5060008167ffffffffffffffff811115610d6a57610d696118a4565b5b604051908082528060200260200182016040528015610da357816020015b610d90611514565b815260200190600190039081610d885790505b509050600080600090505b60018054905081101561100357600560018281548110610dd157610dd0611dab565b5b90600052602060002090600a0201600601541115610ff657600060018281548110610dff57610dfe611dab565b5b90600052602060002090600a02019050604051806101200160405280826000015481526020018260010160009054906101000a900473ffffffffffffffffffffffffffffffffffffffff1673ffffffffffffffffffffffffffffffffffffffff168152602001826002018054610e7490611f7e565b80601f0160208091040260200160405190810160405280929190818152602001828054610ea090611f7e565b8015610eed5780601f10610ec257610100808354040283529160200191610eed565b820191906000526020600020905b815481529060010190602001808311610ed057829003601f168201915b50505050508152602001826003018054610f0690611f7e565b80601f0160208091040260200160405190810160405280929190818152602001828054610f3290611f7e565b8015610f7f5780601f10610f5457610100808354040283529160200191610f7f565b820191906000526020600020905b815481529060010190602001808311610f6257829003601f168201915b505050505081526020018260040160009054906101000a900460ff16151581526020018260060154815260200182600701548152602001826008015481526020018260090154815250848481518110610fdb57610fda611dab565b5b60200260200101819052508280610ff190611f07565b935050505b8080600101915050610dae565b5081935050505090565b6001805490508210611054576040517f08c379a000000000000000000000000000000000000000000000000000000000815260040161104b90611d8b565b60405180910390fd5b3373ffffffffffffffffffffffffffffffffffffffff166003600084815260200190815260200160002060009054906101000a900473ffffffffffffffffffffffffffffffffffffffff1673ffffffffffffffffffffffffffffffffffffffff16036111315780600183815481106110cf576110ce611dab565b5b90600052602060002090600a020160040160006101000a81548160ff0219169083151502179055507f2430f837dd2fb40e08c064be9db3d0cf2a7a21f8fe716a2a41787dafc66a7e2a8282604051611128929190611ede565b60405180910390a15b5050565b600180549050811061117c576040517f08c379a000000000000000000000000000000000000000000000000000000000815260040161117390611d8b565b60405180910390fd5b60006001828154811061119257611191611dab565b5b90600052602060002090600a020190508060050160003373ffffffffffffffffffffffffffffffffffffffff1673ffffffffffffffffffffffffffffffffffffffff16815260200190815260200160002060009054906101000a900460ff1615611231576040517f08c379a000000000000000000000000000000000000000000000000000000000815260040161122890611e4c565b60405180910390fd5b60018160050160003373ffffffffffffffffffffffffffffffffffffffff1673ffffffffffffffffffffffffffffffffffffffff16815260200190815260200160002060006101000a81548160ff02191690831515021790555060018160070160008282546112a09190611e9b565b925050819055503373ffffffffffffffffffffffffffffffffffffffff167f8d85a70fd2c5d140a4a01143492d27ff82cfad4cead313e66c53f39b0feb5e0f8360006040516112f0929190611ede565b60405180910390a25050565b60008054906101000a900473ffffffffffffffffffffffffffffffffffffffff1681565b60006001828154811061133657611335611dab565b5b90600052602060002090600a0201905060006003826009015461135991906123ea565b8260070154836006015461136d91906123b6565b61137791906123b6565b90506003811061150f576000600382611390919061245b565b9050808360090160008282546113a69190611e9b565b9250508190555060008360010160009054906101000a900473ffffffffffffffffffffffffffffffffffffffff16905081600260008373ffffffffffffffffffffffffffffffffffffffff1673ffffffffffffffffffffffffffffffffffffffff16815260200190815260200160002060010160008282546114289190611e9b565b9250508190555060008054906101000a900473ffffffffffffffffffffffffffffffffffffffff1673ffffffffffffffffffffffffffffffffffffffff166340c10f1982670de0b6b3a76400008561148091906123ea565b6040518363ffffffff1660e01b815260040161149d9291906122b5565b600060405180830381600087803b1580156114b757600080fd5b505af11580156114cb573d6000803e3d6000fd5b505050507f18864aac33b9ba01ccc08ab0b244dd2cbacd5368fc51c60b85b9b45e5e13fe0785856009015460405161150492919061248c565b60405180910390a150505b505050565b60405180610120016040528060008152602001600073ffffffffffffffffffffffffffffffffffffffff1681526020016060815260200160608152602001600015158152602001600081526020016000815260200160008152602001600081525090565b6000604051905090565b600080fd5b600080fd5b6000819050919050565b61159f8161158c565b81146115aa57600080fd5b50565b6000813590506115bc81611596565b92915050565b6000602082840312156115d8576115d7611582565b5b60006115e6848285016115ad565b91505092915050565b600081519050919050565b600082825260208201905092915050565b6000819050602082019050919050565b6116248161158c565b82525050565b600073ffffffffffffffffffffffffffffffffffffffff82169050919050565b60006116558261162a565b9050919050565b6116658161164a565b82525050565b600081519050919050565b600082825260208201905092915050565b60005b838110156116a557808201518184015260208101905061168a565b60008484015250505050565b6000601f19601f8301169050919050565b60006116cd8261166b565b6116d78185611676565b93506116e7818560208601611687565b6116f0816116b1565b840191505092915050565b60008115159050919050565b611710816116fb565b82525050565b60006101208301600083015161172f600086018261161b565b506020830151611742602086018261165c565b506040830151848203604086015261175a82826116c2565b9150506060830151848203606086015261177482826116c2565b91505060808301516117896080860182611707565b5060a083015161179c60a086018261161b565b5060c08301516117af60c086018261161b565b5060e08301516117c260e086018261161b565b506101008301516117d761010086018261161b565b508091505092915050565b60006117ee8383611716565b905092915050565b6000602082019050919050565b600061180e826115ef565b61181881856115fa565b93508360208202850161182a8561160b565b8060005b85811015611866578484038952815161184785826117e2565b9450611852836117f6565b925060208a0199505060018101905061182e565b50829750879550505050505092915050565b600060208201905081810360008301526118928184611803565b905092915050565b600080fd5b600080fd5b7f4e487b7100000000000000000000000000000000000000000000000000000000600052604160045260246000fd5b6118dc826116b1565b810181811067ffffffffffffffff821117156118fb576118fa6118a4565b5b80604052505050565b600061190e611578565b905061191a82826118d3565b919050565b600067ffffffffffffffff82111561193a576119396118a4565b5b611943826116b1565b9050602081019050919050565b82818337600083830152505050565b600061197261196d8461191f565b611904565b90508281526020810184848401111561198e5761198d61189f565b5b611999848285611950565b509392505050565b600082601f8301126119b6576119b561189a565b5b81356119c684826020860161195f565b91505092915050565b600080604083850312156119e6576119e5611582565b5b600083013567ffffffffffffffff811115611a0457611a03611587565b5b611a10858286016119a1565b9250506020611a21858286016115ad565b9150509250929050565b611a348161158c565b82525050565b6000602082019050611a4f6000830184611a2b565b92915050565b611a5e8161164a565b82525050565b600081519050919050565b600082825260208201905092915050565b6000819050602082019050919050565b6000611a9c838361161b565b60208301905092915050565b6000602082019050919050565b6000611ac082611a64565b611aca8185611a6f565b9350611ad583611a80565b8060005b83811015611b06578151611aed8882611a90565b9750611af883611aa8565b925050600181019050611ad9565b5085935050505092915050565b6000606082019050611b286000830186611a55565b611b356020830185611a2b565b8181036040830152611b478184611ab5565b9050949350505050565b611b5a816116fb565b8114611b6557600080fd5b50565b600081359050611b7781611b51565b92915050565b600080600060608486031215611b9657611b95611582565b5b600084013567ffffffffffffffff811115611bb457611bb3611587565b5b611bc0868287016119a1565b935050602084013567ffffffffffffffff811115611be157611be0611587565b5b611bed868287016119a1565b9250506040611bfe86828701611b68565b9150509250925092565b611c118161164a565b8114611c1c57600080fd5b50565b600081359050611c2e81611c08565b92915050565b60008060408385031215611c4b57611c4a611582565b5b6000611c5985828601611c1f565b9250506020611c6a858286016115ad565b9150509250929050565b60008060408385031215611c8b57611c8a611582565b5b6000611c99858286016115ad565b9250506020611caa85828601611b68565b9150509250929050565b6000819050919050565b6000611cd9611cd4611ccf8461162a565b611cb4565b61162a565b9050919050565b6000611ceb82611cbe565b9050919050565b6000611cfd82611ce0565b9050919050565b611d0d81611cf2565b82525050565b6000602082019050611d286000830184611d04565b92915050565b600082825260208201905092915050565b7f547765657420646f6573206e6f74206578697374000000000000000000000000600082015250565b6000611d75601483611d2e565b9150611d8082611d3f565b602082019050919050565b60006020820190508181036000830152611da481611d68565b9050919050565b7f4e487b7100000000000000000000000000000000000000000000000000000000600052603260045260246000fd5b7f596f75206861766520616c726561647920766f746564206f6e2074686973207460008201527f776565742e000000000000000000000000000000000000000000000000000000602082015250565b6000611e36602583611d2e565b9150611e4182611dda565b604082019050919050565b60006020820190508181036000830152611e6581611e29565b9050919050565b7f4e487b7100000000000000000000000000000000000000000000000000000000600052601160045260246000fd5b6000611ea68261158c565b9150611eb18361158c565b9250828201905080821115611ec957611ec8611e6c565b5b92915050565b611ed8816116fb565b82525050565b6000604082019050611ef36000830185611a2b565b611f006020830184611ecf565b9392505050565b6000611f128261158c565b91507fffffffffffffffffffffffffffffffffffffffffffffffffffffffffffffffff8203611f4457611f43611e6c565b5b600182019050919050565b7f4e487b7100000000000000000000000000000000000000000000000000000000600052602260045260246000fd5b60006002820490506001821680611f9657607f821691505b602082108103611fa957611fa8611f4f565b5b50919050565b7f596f7520617265206e6f7420617574686f72697a656420746f2076696577207460008201527f686973207573657227732064657461696c732e00000000000000000000000000602082015250565b600061200b603383611d2e565b915061201682611faf565b604082019050919050565b6000602082019050818103600083015261203a81611ffe565b9050919050565b60008190508160005260206000209050919050565b60006020601f8301049050919050565b600082821b905092915050565b6000600883026120a37fffffffffffffffffffffffffffffffffffffffffffffffffffffffffffffffff82612066565b6120ad8683612066565b95508019841693508086168417925050509392505050565b60006120e06120db6120d68461158c565b611cb4565b61158c565b9050919050565b6000819050919050565b6120fa836120c5565b61210e612106826120e7565b848454612073565b825550505050565b600090565b612123612116565b61212e8184846120f1565b505050565b5b818110156121525761214760008261211b565b600181019050612134565b5050565b601f8211156121975761216881612041565b61217184612056565b81016020851015612180578190505b61219461218c85612056565b830182612133565b50505b505050565b600082821c905092915050565b60006121ba6000198460080261219c565b1980831691505092915050565b60006121d383836121a9565b9150826002028217905092915050565b6121ec8261166b565b67ffffffffffffffff811115612205576122046118a4565b5b61220f8254611f7e565b61221a828285612156565b600060209050601f83116001811461224d576000841561223b578287015190505b61224585826121c7565b8655506122ad565b601f19841661225b86612041565b60005b828110156122835784890151825560018201915060208501945060208101905061225e565b868310156122a0578489015161229c601f8916826121a9565b8355505b6001600288020188555050505b505050505050565b60006040820190506122ca6000830185611a55565b6122d76020830184611a2b565b9392505050565b7f5573657220646f6573206e6f7420657869737400000000000000000000000000600082015250565b6000612314601383611d2e565b915061231f826122de565b602082019050919050565b6000602082019050818103600083015261234381612307565b9050919050565b7f496e73756666696369656e7420746f6b656e7300000000000000000000000000600082015250565b6000612380601383611d2e565b915061238b8261234a565b602082019050919050565b600060208201905081810360008301526123af81612373565b9050919050565b60006123c18261158c565b91506123cc8361158c565b92508282039050818111156123e4576123e3611e6c565b5b92915050565b60006123f58261158c565b91506124008361158c565b925082820261240e8161158c565b9150828204841483151761242557612424611e6c565b5b5092915050565b7f4e487b7100000000000000000000000000000000000000000000000000000000600052601260045260246000fd5b60006124668261158c565b91506124718361158c565b9250826124815761248061242c565b5b828204905092915050565b60006040820190506124a16000830185611a2b565b6124ae6020830184611a2b565b939250505056fea26469706673582212204d36fc50454f9cf099c5a2972afe726f5f2645069cd69ea78dbc4f7322d7286f64736f6c63430008180033",
  "linkReferences": {},
  "deployedLinkReferences": {}
}