{
  "_format": "hh-sol-artifact-1",
  "contractName": "BlockTalkNFT",
  "sourceName": "contracts/BlockTalkNFT.sol",
  "abi": [
    {
      "inputs": [
        {
          "internalType": "contract BlockTalkToken",
          "name": "_token",
          "type": "address"
        },
        {
          "internalType": "contract BlockTalkContract",
          "name": "_blockTalkContract",
          "type": "address"
        }
      ],
      "stateMutability": "nonpayable",
      "type": "constructor"
    },
    {
      "inputs": [
        {
          "internalType": "address",
          "name": "sender",
          "type": "address"
        },
        {
          "internalType": "uint256",
          "name": "tokenId",
          "type": "uint256"
        },
        {
          "internalType": "address",
          "name": "owner",
          "type": "address"
        }
      ],
      "name": "ERC721IncorrectOwner",
      "type": "error"
    },
    {
      "inputs": [
        {
          "internalType": "address",
          "name": "operator",
          "type": "address"
        },
        {
          "internalType": "uint256",
          "name": "tokenId",
          "type": "uint256"
        }
      ],
      "name": "ERC721InsufficientApproval",
      "type": "error"
    },
    {
      "inputs": [
        {
          "internalType": "address",
          "name": "approver",
          "type": "address"
        }
      ],
      "name": "ERC721InvalidApprover",
      "type": "error"
    },
    {
      "inputs": [
        {
          "internalType": "address",
          "name": "operator",
          "type": "address"
        }
      ],
      "name": "ERC721InvalidOperator",
      "type": "error"
    },
    {
      "inputs": [
        {
          "internalType": "address",
          "name": "owner",
          "type": "address"
        }
      ],
      "name": "ERC721InvalidOwner",
      "type": "error"
    },
    {
      "inputs": [
        {
          "internalType": "address",
          "name": "receiver",
          "type": "address"
        }
      ],
      "name": "ERC721InvalidReceiver",
      "type": "error"
    },
    {
      "inputs": [
        {
          "internalType": "address",
          "name": "sender",
          "type": "address"
        }
      ],
      "name": "ERC721InvalidSender",
      "type": "error"
    },
    {
      "inputs": [
        {
          "internalType": "uint256",
          "name": "tokenId",
          "type": "uint256"
        }
      ],
      "name": "ERC721NonexistentToken",
      "type": "error"
    },
    {
      "inputs": [
        {
          "internalType": "address",
          "name": "owner",
          "type": "address"
        }
      ],
      "name": "OwnableInvalidOwner",
      "type": "error"
    },
    {
      "inputs": [
        {
          "internalType": "address",
          "name": "account",
          "type": "address"
        }
      ],
      "name": "OwnableUnauthorizedAccount",
      "type": "error"
    },
    {
      "anonymous": false,
      "inputs": [
        {
          "indexed": true,
          "internalType": "address",
          "name": "owner",
          "type": "address"
        },
        {
          "indexed": true,
          "internalType": "address",
          "name": "approved",
          "type": "address"
        },
        {
          "indexed": true,
          "internalType": "uint256",
          "name": "tokenId",
          "type": "uint256"
        }
      ],
      "name": "Approval",
      "type": "event"
    },
    {
      "anonymous": false,
      "inputs": [
        {
          "indexed": true,
          "internalType": "address",
          "name": "owner",
          "type": "address"
        },
        {
          "indexed": true,
          "internalType": "address",
          "name": "operator",
          "type": "address"
        },
        {
          "indexed": false,
          "internalType": "bool",
          "name": "approved",
          "type": "bool"
        }
      ],
      "name": "ApprovalForAll",
      "type": "event"
    },
    {
      "anonymous": false,
      "inputs": [
        {
          "indexed": true,
          "internalType": "address",
          "name": "previousOwner",
          "type": "address"
        },
        {
          "indexed": true,
          "internalType": "address",
          "name": "newOwner",
          "type": "address"
        }
      ],
      "name": "OwnershipTransferred",
      "type": "event"
    },
    {
      "anonymous": false,
      "inputs": [
        {
          "indexed": true,
          "internalType": "address",
          "name": "from",
          "type": "address"
        },
        {
          "indexed": true,
          "internalType": "address",
          "name": "to",
          "type": "address"
        },
        {
          "indexed": true,
          "internalType": "uint256",
          "name": "tokenId",
          "type": "uint256"
        }
      ],
      "name": "Transfer",
      "type": "event"
    },
    {
      "inputs": [],
      "name": "TOKEN_COST",
      "outputs": [
        {
          "internalType": "uint256",
          "name": "",
          "type": "uint256"
        }
      ],
      "stateMutability": "view",
      "type": "function"
    },
    {
      "inputs": [
        {
          "internalType": "address",
          "name": "to",
          "type": "address"
        },
        {
          "internalType": "uint256",
          "name": "tokenId",
          "type": "uint256"
        }
      ],
      "name": "approve",
      "outputs": [],
      "stateMutability": "nonpayable",
      "type": "function"
    },
    {
      "inputs": [
        {
          "internalType": "address",
          "name": "owner",
          "type": "address"
        }
      ],
      "name": "balanceOf",
      "outputs": [
        {
          "internalType": "uint256",
          "name": "",
          "type": "uint256"
        }
      ],
      "stateMutability": "view",
      "type": "function"
    },
    {
      "inputs": [],
      "name": "blockTalkContract",
      "outputs": [
        {
          "internalType": "contract BlockTalkContract",
          "name": "",
          "type": "address"
        }
      ],
      "stateMutability": "view",
      "type": "function"
    },
    {
      "inputs": [
        {
          "internalType": "uint256",
          "name": "tokenId",
          "type": "uint256"
        }
      ],
      "name": "getApproved",
      "outputs": [
        {
          "internalType": "address",
          "name": "",
          "type": "address"
        }
      ],
      "stateMutability": "view",
      "type": "function"
    },
    {
      "inputs": [
        {
          "internalType": "address",
          "name": "owner",
          "type": "address"
        },
        {
          "internalType": "address",
          "name": "operator",
          "type": "address"
        }
      ],
      "name": "isApprovedForAll",
      "outputs": [
        {
          "internalType": "bool",
          "name": "",
          "type": "bool"
        }
      ],
      "stateMutability": "view",
      "type": "function"
    },
    {
      "inputs": [],
      "name": "mintNFT",
      "outputs": [],
      "stateMutability": "nonpayable",
      "type": "function"
    },
    {
      "inputs": [],
      "name": "name",
      "outputs": [
        {
          "internalType": "string",
          "name": "",
          "type": "string"
        }
      ],
      "stateMutability": "view",
      "type": "function"
    },
    {
      "inputs": [],
      "name": "nextTokenId",
      "outputs": [
        {
          "internalType": "uint256",
          "name": "",
          "type": "uint256"
        }
      ],
      "stateMutability": "view",
      "type": "function"
    },
    {
      "inputs": [],
      "name": "owner",
      "outputs": [
        {
          "internalType": "address",
          "name": "",
          "type": "address"
        }
      ],
      "stateMutability": "view",
      "type": "function"
    },
    {
      "inputs": [
        {
          "internalType": "uint256",
          "name": "tokenId",
          "type": "uint256"
        }
      ],
      "name": "ownerOf",
      "outputs": [
        {
          "internalType": "address",
          "name": "",
          "type": "address"
        }
      ],
      "stateMutability": "view",
      "type": "function"
    },
    {
      "inputs": [],
      "name": "renounceOwnership",
      "outputs": [],
      "stateMutability": "nonpayable",
      "type": "function"
    },
    {
      "inputs": [
        {
          "internalType": "address",
          "name": "from",
          "type": "address"
        },
        {
          "internalType": "address",
          "name": "to",
          "type": "address"
        },
        {
          "internalType": "uint256",
          "name": "tokenId",
          "type": "uint256"
        }
      ],
      "name": "safeTransferFrom",
      "outputs": [],
      "stateMutability": "nonpayable",
      "type": "function"
    },
    {
      "inputs": [
        {
          "internalType": "address",
          "name": "from",
          "type": "address"
        },
        {
          "internalType": "address",
          "name": "to",
          "type": "address"
        },
        {
          "internalType": "uint256",
          "name": "tokenId",
          "type": "uint256"
        },
        {
          "internalType": "bytes",
          "name": "data",
          "type": "bytes"
        }
      ],
      "name": "safeTransferFrom",
      "outputs": [],
      "stateMutability": "nonpayable",
      "type": "function"
    },
    {
      "inputs": [
        {
          "internalType": "address",
          "name": "operator",
          "type": "address"
        },
        {
          "internalType": "bool",
          "name": "approved",
          "type": "bool"
        }
      ],
      "name": "setApprovalForAll",
      "outputs": [],
      "stateMutability": "nonpayable",
      "type": "function"
    },
    {
      "inputs": [
        {
          "internalType": "bytes4",
          "name": "interfaceId",
          "type": "bytes4"
        }
      ],
      "name": "supportsInterface",
      "outputs": [
        {
          "internalType": "bool",
          "name": "",
          "type": "bool"
        }
      ],
      "stateMutability": "view",
      "type": "function"
    },
    {
      "inputs": [],
      "name": "symbol",
      "outputs": [
        {
          "internalType": "string",
          "name": "",
          "type": "string"
        }
      ],
      "stateMutability": "view",
      "type": "function"
    },
    {
      "inputs": [],
      "name": "token",
      "outputs": [
        {
          "internalType": "contract BlockTalkToken",
          "name": "",
          "type": "address"
        }
      ],
      "stateMutability": "view",
      "type": "function"
    },
    {
      "inputs": [
        {
          "internalType": "uint256",
          "name": "tokenId",
          "type": "uint256"
        }
      ],
      "name": "tokenURI",
      "outputs": [
        {
          "internalType": "string",
          "name": "",
          "type": "string"
        }
      ],
      "stateMutability": "view",
      "type": "function"
    },
    {
      "inputs": [
        {
          "internalType": "address",
          "name": "from",
          "type": "address"
        },
        {
          "internalType": "address",
          "name": "to",
          "type": "address"
        },
        {
          "internalType": "uint256",
          "name": "tokenId",
          "type": "uint256"
        }
      ],
      "name": "transferFrom",
      "outputs": [],
      "stateMutability": "nonpayable",
      "type": "function"
    },
    {
      "inputs": [
        {
          "internalType": "address",
          "name": "newOwner",
          "type": "address"
        }
      ],
      "name": "transferOwnership",
      "outputs": [],
      "stateMutability": "nonpayable",
      "type": "function"
    }
  ],
  "bytecode": "0x60806040523480156200001157600080fd5b5060405162002d0238038062002d02833981810160405281019062000037919062000364565b336040518060400160405280600d81526020017f426c6f636b54616c6b204e4654000000000000000000000000000000000000008152506040518060400160405280600681526020017f42544b4e465400000000000000000000000000000000000000000000000000008152508160009081620000b5919062000625565b508060019081620000c7919062000625565b505050600073ffffffffffffffffffffffffffffffffffffffff168173ffffffffffffffffffffffffffffffffffffffff16036200013f5760006040517f1e4fbdf70000000000000000000000000000000000000000000000000000000081526004016200013691906200071d565b60405180910390fd5b6200015081620001db60201b60201c565b5081600760006101000a81548173ffffffffffffffffffffffffffffffffffffffff021916908373ffffffffffffffffffffffffffffffffffffffff16021790555080600860006101000a81548173ffffffffffffffffffffffffffffffffffffffff021916908373ffffffffffffffffffffffffffffffffffffffff16021790555050506200073a565b6000600660009054906101000a900473ffffffffffffffffffffffffffffffffffffffff16905081600660006101000a81548173ffffffffffffffffffffffffffffffffffffffff021916908373ffffffffffffffffffffffffffffffffffffffff1602179055508173ffffffffffffffffffffffffffffffffffffffff168173ffffffffffffffffffffffffffffffffffffffff167f8be0079c531659141344cd1fd0a4f28419497f9722a3daafe3b4186f6b6457e060405160405180910390a35050565b600080fd5b600073ffffffffffffffffffffffffffffffffffffffff82169050919050565b6000620002d382620002a6565b9050919050565b6000620002e782620002c6565b9050919050565b620002f981620002da565b81146200030557600080fd5b50565b6000815190506200031981620002ee565b92915050565b60006200032c82620002c6565b9050919050565b6200033e816200031f565b81146200034a57600080fd5b50565b6000815190506200035e8162000333565b92915050565b600080604083850312156200037e576200037d620002a1565b5b60006200038e8582860162000308565b9250506020620003a1858286016200034d565b9150509250929050565b600081519050919050565b7f4e487b7100000000000000000000000000000000000000000000000000000000600052604160045260246000fd5b7f4e487b7100000000000000000000000000000000000000000000000000000000600052602260045260246000fd5b600060028204905060018216806200042d57607f821691505b602082108103620004435762000442620003e5565b5b50919050565b60008190508160005260206000209050919050565b60006020601f8301049050919050565b600082821b905092915050565b600060088302620004ad7fffffffffffffffffffffffffffffffffffffffffffffffffffffffffffffffff826200046e565b620004b986836200046e565b95508019841693508086168417925050509392505050565b6000819050919050565b6000819050919050565b60006200050662000500620004fa84620004d1565b620004db565b620004d1565b9050919050565b6000819050919050565b6200052283620004e5565b6200053a62000531826200050d565b8484546200047b565b825550505050565b600090565b6200055162000542565b6200055e81848462000517565b505050565b5b8181101562000586576200057a60008262000547565b60018101905062000564565b5050565b601f821115620005d5576200059f8162000449565b620005aa846200045e565b81016020851015620005ba578190505b620005d2620005c9856200045e565b83018262000563565b50505b505050565b600082821c905092915050565b6000620005fa60001984600802620005da565b1980831691505092915050565b6000620006158383620005e7565b9150826002028217905092915050565b6200063082620003ab565b67ffffffffffffffff8111156200064c576200064b620003b6565b5b62000658825462000414565b620006658282856200058a565b600060209050601f8311600181146200069d576000841562000688578287015190505b62000694858262000607565b86555062000704565b601f198416620006ad8662000449565b60005b82811015620006d757848901518255600182019150602085019450602081019050620006b0565b86831015620006f75784890151620006f3601f891682620005e7565b8355505b6001600288020188555050505b505050505050565b6200071781620002c6565b82525050565b60006020820190506200073460008301846200070c565b92915050565b6125b8806200074a6000396000f3fe608060405234801561001057600080fd5b50600436106101375760003560e01c8063715018a6116100b8578063b53cd0211161007c578063b53cd02114610316578063b88d4fde14610334578063c87b56dd14610350578063e985e9c514610380578063f2fde38b146103b0578063fc0c546a146103cc57610137565b8063715018a61461029657806375794a3c146102a05780638da5cb5b146102be57806395d89b41146102dc578063a22cb465146102fa57610137565b806323b872dd116100ff57806323b872dd146101e05780633aa35ee0146101fc57806342842e0e1461021a5780636352211e1461023657806370a082311461026657610137565b806301ffc9a71461013c57806306fdde031461016c578063081812fc1461018a578063095ea7b3146101ba57806314f710fe146101d6575b600080fd5b61015660048036038101906101519190611bae565b6103ea565b6040516101639190611bf6565b60405180910390f35b6101746104cc565b6040516101819190611ca1565b60405180910390f35b6101a4600480360381019061019f9190611cf9565b61055e565b6040516101b19190611d67565b60405180910390f35b6101d460048036038101906101cf9190611dae565b61057a565b005b6101de610590565b005b6101fa60048036038101906101f59190611dee565b6107e1565b005b6102046108e3565b6040516102119190611e50565b60405180910390f35b610234600480360381019061022f9190611dee565b6108f0565b005b610250600480360381019061024b9190611cf9565b610910565b60405161025d9190611d67565b60405180910390f35b610280600480360381019061027b9190611e6b565b610922565b60405161028d9190611e50565b60405180910390f35b61029e6109dc565b005b6102a86109f0565b6040516102b59190611e50565b60405180910390f35b6102c66109f6565b6040516102d39190611d67565b60405180910390f35b6102e4610a20565b6040516102f19190611ca1565b60405180910390f35b610314600480360381019061030f9190611ec4565b610ab2565b005b61031e610ac8565b60405161032b9190611f63565b60405180910390f35b61034e600480360381019061034991906120b3565b610aee565b005b61036a60048036038101906103659190611cf9565b610b0b565b6040516103779190611ca1565b60405180910390f35b61039a60048036038101906103959190612136565b610b74565b6040516103a79190611bf6565b60405180910390f35b6103ca60048036038101906103c59190611e6b565b610c08565b005b6103d4610c8e565b6040516103e19190612197565b60405180910390f35b60007f80ac58cd000000000000000000000000000000000000000000000000000000007bffffffffffffffffffffffffffffffffffffffffffffffffffffffff1916827bffffffffffffffffffffffffffffffffffffffffffffffffffffffff191614806104b557507f5b5e139f000000000000000000000000000000000000000000000000000000007bffffffffffffffffffffffffffffffffffffffffffffffffffffffff1916827bffffffffffffffffffffffffffffffffffffffffffffffffffffffff1916145b806104c557506104c482610cb4565b5b9050919050565b6060600080546104db906121e1565b80601f0160208091040260200160405190810160405280929190818152602001828054610507906121e1565b80156105545780601f1061052957610100808354040283529160200191610554565b820191906000526020600020905b81548152906001019060200180831161053757829003601f168201915b5050505050905090565b600061056982610d1e565b5061057382610da6565b9050919050565b61058c8282610587610de3565b610deb565b5050565b68056bc75e2d63100000600760009054906101000a900473ffffffffffffffffffffffffffffffffffffffff1673ffffffffffffffffffffffffffffffffffffffff166370a08231336040518263ffffffff1660e01b81526004016105f59190611d67565b602060405180830381865afa158015610612573d6000803e3d6000fd5b505050506040513d601f19601f820116820180604052508101906106369190612227565b1015610677576040517f08c379a000000000000000000000000000000000000000000000000000000000815260040161066e906122a0565b60405180910390fd5b600760009054906101000a900473ffffffffffffffffffffffffffffffffffffffff1673ffffffffffffffffffffffffffffffffffffffff166323b872dd333068056bc75e2d631000006040518463ffffffff1660e01b81526004016106df939291906122c0565b6020604051808303816000875af11580156106fe573d6000803e3d6000fd5b505050506040513d601f19601f82011682018060405250810190610722919061230c565b50600860009054906101000a900473ffffffffffffffffffffffffffffffffffffffff1673ffffffffffffffffffffffffffffffffffffffff1663ba4237f83368056bc75e2d631000006040518363ffffffff1660e01b8152600401610789929190612339565b600060405180830381600087803b1580156107a357600080fd5b505af11580156107b7573d6000803e3d6000fd5b505050506107c733600954610dfd565b600960008154809291906107da90612391565b9190505550565b600073ffffffffffffffffffffffffffffffffffffffff168273ffffffffffffffffffffffffffffffffffffffff16036108535760006040517f64a0ae9200000000000000000000000000000000000000000000000000000000815260040161084a9190611d67565b60405180910390fd5b60006108678383610862610de3565b610ef6565b90508373ffffffffffffffffffffffffffffffffffffffff168173ffffffffffffffffffffffffffffffffffffffff16146108dd578382826040517f64283d7b0000000000000000000000000000000000000000000000000000000081526004016108d4939291906123d9565b60405180910390fd5b50505050565b68056bc75e2d6310000081565b61090b83838360405180602001604052806000815250610aee565b505050565b600061091b82610d1e565b9050919050565b60008073ffffffffffffffffffffffffffffffffffffffff168273ffffffffffffffffffffffffffffffffffffffff16036109955760006040517f89c62b6400000000000000000000000000000000000000000000000000000000815260040161098c9190611d67565b60405180910390fd5b600360008373ffffffffffffffffffffffffffffffffffffffff1673ffffffffffffffffffffffffffffffffffffffff168152602001908152602001600020549050919050565b6109e4611110565b6109ee6000611197565b565b60095481565b6000600660009054906101000a900473ffffffffffffffffffffffffffffffffffffffff16905090565b606060018054610a2f906121e1565b80601f0160208091040260200160405190810160405280929190818152602001828054610a5b906121e1565b8015610aa85780601f10610a7d57610100808354040283529160200191610aa8565b820191906000526020600020905b815481529060010190602001808311610a8b57829003601f168201915b5050505050905090565b610ac4610abd610de3565b838361125d565b5050565b600860009054906101000a900473ffffffffffffffffffffffffffffffffffffffff1681565b610af98484846107e1565b610b05848484846113cc565b50505050565b6060610b1682610d1e565b506000610b21611583565b90506000815111610b415760405180602001604052806000815250610b6c565b80610b4b8461159a565b604051602001610b5c92919061244c565b6040516020818303038152906040525b915050919050565b6000600560008473ffffffffffffffffffffffffffffffffffffffff1673ffffffffffffffffffffffffffffffffffffffff16815260200190815260200160002060008373ffffffffffffffffffffffffffffffffffffffff1673ffffffffffffffffffffffffffffffffffffffff16815260200190815260200160002060009054906101000a900460ff16905092915050565b610c10611110565b600073ffffffffffffffffffffffffffffffffffffffff168173ffffffffffffffffffffffffffffffffffffffff1603610c825760006040517f1e4fbdf7000000000000000000000000000000000000000000000000000000008152600401610c799190611d67565b60405180910390fd5b610c8b81611197565b50565b600760009054906101000a900473ffffffffffffffffffffffffffffffffffffffff1681565b60007f01ffc9a7000000000000000000000000000000000000000000000000000000007bffffffffffffffffffffffffffffffffffffffffffffffffffffffff1916827bffffffffffffffffffffffffffffffffffffffffffffffffffffffff1916149050919050565b600080610d2a83611668565b9050600073ffffffffffffffffffffffffffffffffffffffff168173ffffffffffffffffffffffffffffffffffffffff1603610d9d57826040517f7e273289000000000000000000000000000000000000000000000000000000008152600401610d949190611e50565b60405180910390fd5b80915050919050565b60006004600083815260200190815260200160002060009054906101000a900473ffffffffffffffffffffffffffffffffffffffff169050919050565b600033905090565b610df883838360016116a5565b505050565b600073ffffffffffffffffffffffffffffffffffffffff168273ffffffffffffffffffffffffffffffffffffffff1603610e6f5760006040517f64a0ae92000000000000000000000000000000000000000000000000000000008152600401610e669190611d67565b60405180910390fd5b6000610e7d83836000610ef6565b9050600073ffffffffffffffffffffffffffffffffffffffff168173ffffffffffffffffffffffffffffffffffffffff1614610ef15760006040517f73c6ac6e000000000000000000000000000000000000000000000000000000008152600401610ee89190611d67565b60405180910390fd5b505050565b600080610f0284611668565b9050600073ffffffffffffffffffffffffffffffffffffffff168373ffffffffffffffffffffffffffffffffffffffff1614610f4457610f4381848661186a565b5b600073ffffffffffffffffffffffffffffffffffffffff168173ffffffffffffffffffffffffffffffffffffffff1614610fd557610f866000856000806116a5565b6001600360008373ffffffffffffffffffffffffffffffffffffffff1673ffffffffffffffffffffffffffffffffffffffff168152602001908152602001600020600082825403925050819055505b600073ffffffffffffffffffffffffffffffffffffffff168573ffffffffffffffffffffffffffffffffffffffff1614611058576001600360008773ffffffffffffffffffffffffffffffffffffffff1673ffffffffffffffffffffffffffffffffffffffff168152602001908152602001600020600082825401925050819055505b846002600086815260200190815260200160002060006101000a81548173ffffffffffffffffffffffffffffffffffffffff021916908373ffffffffffffffffffffffffffffffffffffffff160217905550838573ffffffffffffffffffffffffffffffffffffffff168273ffffffffffffffffffffffffffffffffffffffff167fddf252ad1be2c89b69c2b068fc378daa952ba7f163c4a11628f55a4df523b3ef60405160405180910390a4809150509392505050565b611118610de3565b73ffffffffffffffffffffffffffffffffffffffff166111366109f6565b73ffffffffffffffffffffffffffffffffffffffff161461119557611159610de3565b6040517f118cdaa700000000000000000000000000000000000000000000000000000000815260040161118c9190611d67565b60405180910390fd5b565b6000600660009054906101000a900473ffffffffffffffffffffffffffffffffffffffff16905081600660006101000a81548173ffffffffffffffffffffffffffffffffffffffff021916908373ffffffffffffffffffffffffffffffffffffffff1602179055508173ffffffffffffffffffffffffffffffffffffffff168173ffffffffffffffffffffffffffffffffffffffff167f8be0079c531659141344cd1fd0a4f28419497f9722a3daafe3b4186f6b6457e060405160405180910390a35050565b600073ffffffffffffffffffffffffffffffffffffffff168273ffffffffffffffffffffffffffffffffffffffff16036112ce57816040517f5b08ba180000000000000000000000000000000000000000000000000000000081526004016112c59190611d67565b60405180910390fd5b80600560008573ffffffffffffffffffffffffffffffffffffffff1673ffffffffffffffffffffffffffffffffffffffff16815260200190815260200160002060008473ffffffffffffffffffffffffffffffffffffffff1673ffffffffffffffffffffffffffffffffffffffff16815260200190815260200160002060006101000a81548160ff0219169083151502179055508173ffffffffffffffffffffffffffffffffffffffff168373ffffffffffffffffffffffffffffffffffffffff167f17307eab39ab6107e8899845ad3d59bd9653f200f220920489ca2b5937696c31836040516113bf9190611bf6565b60405180910390a3505050565b60008373ffffffffffffffffffffffffffffffffffffffff163b111561157d578273ffffffffffffffffffffffffffffffffffffffff1663150b7a02611410610de3565b8685856040518563ffffffff1660e01b815260040161143294939291906124c5565b6020604051808303816000875af192505050801561146e57506040513d601f19601f8201168201806040525081019061146b9190612526565b60015b6114f2573d806000811461149e576040519150601f19603f3d011682016040523d82523d6000602084013e6114a3565b606091505b5060008151036114ea57836040517f64a0ae920000000000000000000000000000000000000000000000000000000081526004016114e19190611d67565b60405180910390fd5b805181602001fd5b63150b7a0260e01b7bffffffffffffffffffffffffffffffffffffffffffffffffffffffff1916817bffffffffffffffffffffffffffffffffffffffffffffffffffffffff19161461157b57836040517f64a0ae920000000000000000000000000000000000000000000000000000000081526004016115729190611d67565b60405180910390fd5b505b50505050565b606060405180602001604052806000815250905090565b6060600060016115a98461192e565b01905060008167ffffffffffffffff8111156115c8576115c7611f88565b5b6040519080825280601f01601f1916602001820160405280156115fa5781602001600182028036833780820191505090505b509050600082602001820190505b60011561165d578080600190039150507f3031323334353637383961626364656600000000000000000000000000000000600a86061a8153600a858161165157611650612553565b5b04945060008503611608575b819350505050919050565b60006002600083815260200190815260200160002060009054906101000a900473ffffffffffffffffffffffffffffffffffffffff169050919050565b80806116de5750600073ffffffffffffffffffffffffffffffffffffffff168273ffffffffffffffffffffffffffffffffffffffff1614155b156118125760006116ee84610d1e565b9050600073ffffffffffffffffffffffffffffffffffffffff168373ffffffffffffffffffffffffffffffffffffffff161415801561175957508273ffffffffffffffffffffffffffffffffffffffff168173ffffffffffffffffffffffffffffffffffffffff1614155b801561176c575061176a8184610b74565b155b156117ae57826040517fa9fbf51f0000000000000000000000000000000000000000000000000000000081526004016117a59190611d67565b60405180910390fd5b811561181057838573ffffffffffffffffffffffffffffffffffffffff168273ffffffffffffffffffffffffffffffffffffffff167f8c5be1e5ebec7d5bd14f71427d1e84f3dd0314c0f7b2291e5b200ac8c7c3b92560405160405180910390a45b505b836004600085815260200190815260200160002060006101000a81548173ffffffffffffffffffffffffffffffffffffffff021916908373ffffffffffffffffffffffffffffffffffffffff16021790555050505050565b611875838383611a81565b61192957600073ffffffffffffffffffffffffffffffffffffffff168373ffffffffffffffffffffffffffffffffffffffff16036118ea57806040517f7e2732890000000000000000000000000000000000000000000000000000000081526004016118e19190611e50565b60405180910390fd5b81816040517f177e802f000000000000000000000000000000000000000000000000000000008152600401611920929190612339565b60405180910390fd5b505050565b600080600090507a184f03e93ff9f4daa797ed6e38ed64bf6a1f010000000000000000831061198c577a184f03e93ff9f4daa797ed6e38ed64bf6a1f010000000000000000838161198257611981612553565b5b0492506040810190505b6d04ee2d6d415b85acef810000000083106119c9576d04ee2d6d415b85acef810000000083816119bf576119be612553565b5b0492506020810190505b662386f26fc1000083106119f857662386f26fc1000083816119ee576119ed612553565b5b0492506010810190505b6305f5e1008310611a21576305f5e1008381611a1757611a16612553565b5b0492506008810190505b6127108310611a46576127108381611a3c57611a3b612553565b5b0492506004810190505b60648310611a695760648381611a5f57611a5e612553565b5b0492506002810190505b600a8310611a78576001810190505b80915050919050565b60008073ffffffffffffffffffffffffffffffffffffffff168373ffffffffffffffffffffffffffffffffffffffff1614158015611b3957508273ffffffffffffffffffffffffffffffffffffffff168473ffffffffffffffffffffffffffffffffffffffff161480611afa5750611af98484610b74565b5b80611b3857508273ffffffffffffffffffffffffffffffffffffffff16611b2083610da6565b73ffffffffffffffffffffffffffffffffffffffff16145b5b90509392505050565b6000604051905090565b600080fd5b600080fd5b60007fffffffff0000000000000000000000000000000000000000000000000000000082169050919050565b611b8b81611b56565b8114611b9657600080fd5b50565b600081359050611ba881611b82565b92915050565b600060208284031215611bc457611bc3611b4c565b5b6000611bd284828501611b99565b91505092915050565b60008115159050919050565b611bf081611bdb565b82525050565b6000602082019050611c0b6000830184611be7565b92915050565b600081519050919050565b600082825260208201905092915050565b60005b83811015611c4b578082015181840152602081019050611c30565b60008484015250505050565b6000601f19601f8301169050919050565b6000611c7382611c11565b611c7d8185611c1c565b9350611c8d818560208601611c2d565b611c9681611c57565b840191505092915050565b60006020820190508181036000830152611cbb8184611c68565b905092915050565b6000819050919050565b611cd681611cc3565b8114611ce157600080fd5b50565b600081359050611cf381611ccd565b92915050565b600060208284031215611d0f57611d0e611b4c565b5b6000611d1d84828501611ce4565b91505092915050565b600073ffffffffffffffffffffffffffffffffffffffff82169050919050565b6000611d5182611d26565b9050919050565b611d6181611d46565b82525050565b6000602082019050611d7c6000830184611d58565b92915050565b611d8b81611d46565b8114611d9657600080fd5b50565b600081359050611da881611d82565b92915050565b60008060408385031215611dc557611dc4611b4c565b5b6000611dd385828601611d99565b9250506020611de485828601611ce4565b9150509250929050565b600080600060608486031215611e0757611e06611b4c565b5b6000611e1586828701611d99565b9350506020611e2686828701611d99565b9250506040611e3786828701611ce4565b9150509250925092565b611e4a81611cc3565b82525050565b6000602082019050611e656000830184611e41565b92915050565b600060208284031215611e8157611e80611b4c565b5b6000611e8f84828501611d99565b91505092915050565b611ea181611bdb565b8114611eac57600080fd5b50565b600081359050611ebe81611e98565b92915050565b60008060408385031215611edb57611eda611b4c565b5b6000611ee985828601611d99565b9250506020611efa85828601611eaf565b9150509250929050565b6000819050919050565b6000611f29611f24611f1f84611d26565b611f04565b611d26565b9050919050565b6000611f3b82611f0e565b9050919050565b6000611f4d82611f30565b9050919050565b611f5d81611f42565b82525050565b6000602082019050611f786000830184611f54565b92915050565b600080fd5b600080fd5b7f4e487b7100000000000000000000000000000000000000000000000000000000600052604160045260246000fd5b611fc082611c57565b810181811067ffffffffffffffff82111715611fdf57611fde611f88565b5b80604052505050565b6000611ff2611b42565b9050611ffe8282611fb7565b919050565b600067ffffffffffffffff82111561201e5761201d611f88565b5b61202782611c57565b9050602081019050919050565b82818337600083830152505050565b600061205661205184612003565b611fe8565b90508281526020810184848401111561207257612071611f83565b5b61207d848285612034565b509392505050565b600082601f83011261209a57612099611f7e565b5b81356120aa848260208601612043565b91505092915050565b600080600080608085870312156120cd576120cc611b4c565b5b60006120db87828801611d99565b94505060206120ec87828801611d99565b93505060406120fd87828801611ce4565b925050606085013567ffffffffffffffff81111561211e5761211d611b51565b5b61212a87828801612085565b91505092959194509250565b6000806040838503121561214d5761214c611b4c565b5b600061215b85828601611d99565b925050602061216c85828601611d99565b9150509250929050565b600061218182611f30565b9050919050565b61219181612176565b82525050565b60006020820190506121ac6000830184612188565b92915050565b7f4e487b7100000000000000000000000000000000000000000000000000000000600052602260045260246000fd5b600060028204905060018216806121f957607f821691505b60208210810361220c5761220b6121b2565b5b50919050565b60008151905061222181611ccd565b92915050565b60006020828403121561223d5761223c611b4c565b5b600061224b84828501612212565b91505092915050565b7f4e6f7420656e6f7567682042544b20746f6b656e730000000000000000000000600082015250565b600061228a601583611c1c565b915061229582612254565b602082019050919050565b600060208201905081810360008301526122b98161227d565b9050919050565b60006060820190506122d56000830186611d58565b6122e26020830185611d58565b6122ef6040830184611e41565b949350505050565b60008151905061230681611e98565b92915050565b60006020828403121561232257612321611b4c565b5b6000612330848285016122f7565b91505092915050565b600060408201905061234e6000830185611d58565b61235b6020830184611e41565b9392505050565b7f4e487b7100000000000000000000000000000000000000000000000000000000600052601160045260246000fd5b600061239c82611cc3565b91507fffffffffffffffffffffffffffffffffffffffffffffffffffffffffffffffff82036123ce576123cd612362565b5b600182019050919050565b60006060820190506123ee6000830186611d58565b6123fb6020830185611e41565b6124086040830184611d58565b949350505050565b600081905092915050565b600061242682611c11565b6124308185612410565b9350612440818560208601611c2d565b80840191505092915050565b6000612458828561241b565b9150612464828461241b565b91508190509392505050565b600081519050919050565b600082825260208201905092915050565b600061249782612470565b6124a1818561247b565b93506124b1818560208601611c2d565b6124ba81611c57565b840191505092915050565b60006080820190506124da6000830187611d58565b6124e76020830186611d58565b6124f46040830185611e41565b8181036060830152612506818461248c565b905095945050505050565b60008151905061252081611b82565b92915050565b60006020828403121561253c5761253b611b4c565b5b600061254a84828501612511565b91505092915050565b7f4e487b7100000000000000000000000000000000000000000000000000000000600052601260045260246000fdfea264697066735822122069a050052647dfa41a890a2f8f8f6aba21ebcce2cafc836623496b0901cd995c64736f6c63430008180033",
  "linkReferences": {},
  "deployedLinkReferences": {}
}