{
  "_format": "hh-sol-artifact-1",
  "contractName": "BlockTalkNFT",
  "sourceName": "contracts/BlockTalkNFT.sol",
  "abi": [
    {
      "inputs": [
        {
          "internalType": "contract BlockTalkToken",
          "name": "_token",
          "type": "address"
        }
      ],
      "stateMutability": "nonpayable",
      "type": "constructor"
    },
    {
      "inputs": [
        {
          "internalType": "address",
          "name": "sender",
          "type": "address"
        },
        {
          "internalType": "uint256",
          "name": "tokenId",
          "type": "uint256"
        },
        {
          "internalType": "address",
          "name": "owner",
          "type": "address"
        }
      ],
      "name": "ERC721IncorrectOwner",
      "type": "error"
    },
    {
      "inputs": [
        {
          "internalType": "address",
          "name": "operator",
          "type": "address"
        },
        {
          "internalType": "uint256",
          "name": "tokenId",
          "type": "uint256"
        }
      ],
      "name": "ERC721InsufficientApproval",
      "type": "error"
    },
    {
      "inputs": [
        {
          "internalType": "address",
          "name": "approver",
          "type": "address"
        }
      ],
      "name": "ERC721InvalidApprover",
      "type": "error"
    },
    {
      "inputs": [
        {
          "internalType": "address",
          "name": "operator",
          "type": "address"
        }
      ],
      "name": "ERC721InvalidOperator",
      "type": "error"
    },
    {
      "inputs": [
        {
          "internalType": "address",
          "name": "owner",
          "type": "address"
        }
      ],
      "name": "ERC721InvalidOwner",
      "type": "error"
    },
    {
      "inputs": [
        {
          "internalType": "address",
          "name": "receiver",
          "type": "address"
        }
      ],
      "name": "ERC721InvalidReceiver",
      "type": "error"
    },
    {
      "inputs": [
        {
          "internalType": "address",
          "name": "sender",
          "type": "address"
        }
      ],
      "name": "ERC721InvalidSender",
      "type": "error"
    },
    {
      "inputs": [
        {
          "internalType": "uint256",
          "name": "tokenId",
          "type": "uint256"
        }
      ],
      "name": "ERC721NonexistentToken",
      "type": "error"
    },
    {
      "inputs": [
        {
          "internalType": "address",
          "name": "owner",
          "type": "address"
        }
      ],
      "name": "OwnableInvalidOwner",
      "type": "error"
    },
    {
      "inputs": [
        {
          "internalType": "address",
          "name": "account",
          "type": "address"
        }
      ],
      "name": "OwnableUnauthorizedAccount",
      "type": "error"
    },
    {
      "anonymous": false,
      "inputs": [
        {
          "indexed": true,
          "internalType": "address",
          "name": "owner",
          "type": "address"
        },
        {
          "indexed": true,
          "internalType": "address",
          "name": "approved",
          "type": "address"
        },
        {
          "indexed": true,
          "internalType": "uint256",
          "name": "tokenId",
          "type": "uint256"
        }
      ],
      "name": "Approval",
      "type": "event"
    },
    {
      "anonymous": false,
      "inputs": [
        {
          "indexed": true,
          "internalType": "address",
          "name": "owner",
          "type": "address"
        },
        {
          "indexed": true,
          "internalType": "address",
          "name": "operator",
          "type": "address"
        },
        {
          "indexed": false,
          "internalType": "bool",
          "name": "approved",
          "type": "bool"
        }
      ],
      "name": "ApprovalForAll",
      "type": "event"
    },
    {
      "anonymous": false,
      "inputs": [
        {
          "indexed": true,
          "internalType": "address",
          "name": "previousOwner",
          "type": "address"
        },
        {
          "indexed": true,
          "internalType": "address",
          "name": "newOwner",
          "type": "address"
        }
      ],
      "name": "OwnershipTransferred",
      "type": "event"
    },
    {
      "anonymous": false,
      "inputs": [
        {
          "indexed": true,
          "internalType": "address",
          "name": "from",
          "type": "address"
        },
        {
          "indexed": true,
          "internalType": "address",
          "name": "to",
          "type": "address"
        },
        {
          "indexed": true,
          "internalType": "uint256",
          "name": "tokenId",
          "type": "uint256"
        }
      ],
      "name": "Transfer",
      "type": "event"
    },
    {
      "inputs": [],
      "name": "TOKEN_COST",
      "outputs": [
        {
          "internalType": "uint256",
          "name": "",
          "type": "uint256"
        }
      ],
      "stateMutability": "view",
      "type": "function"
    },
    {
      "inputs": [
        {
          "internalType": "address",
          "name": "to",
          "type": "address"
        },
        {
          "internalType": "uint256",
          "name": "tokenId",
          "type": "uint256"
        }
      ],
      "name": "approve",
      "outputs": [],
      "stateMutability": "nonpayable",
      "type": "function"
    },
    {
      "inputs": [
        {
          "internalType": "address",
          "name": "owner",
          "type": "address"
        }
      ],
      "name": "balanceOf",
      "outputs": [
        {
          "internalType": "uint256",
          "name": "",
          "type": "uint256"
        }
      ],
      "stateMutability": "view",
      "type": "function"
    },
    {
      "inputs": [
        {
          "internalType": "uint256",
          "name": "tokenId",
          "type": "uint256"
        }
      ],
      "name": "getApproved",
      "outputs": [
        {
          "internalType": "address",
          "name": "",
          "type": "address"
        }
      ],
      "stateMutability": "view",
      "type": "function"
    },
    {
      "inputs": [
        {
          "internalType": "address",
          "name": "owner",
          "type": "address"
        },
        {
          "internalType": "address",
          "name": "operator",
          "type": "address"
        }
      ],
      "name": "isApprovedForAll",
      "outputs": [
        {
          "internalType": "bool",
          "name": "",
          "type": "bool"
        }
      ],
      "stateMutability": "view",
      "type": "function"
    },
    {
      "inputs": [],
      "name": "mintNFT",
      "outputs": [],
      "stateMutability": "nonpayable",
      "type": "function"
    },
    {
      "inputs": [],
      "name": "name",
      "outputs": [
        {
          "internalType": "string",
          "name": "",
          "type": "string"
        }
      ],
      "stateMutability": "view",
      "type": "function"
    },
    {
      "inputs": [],
      "name": "nextTokenId",
      "outputs": [
        {
          "internalType": "uint256",
          "name": "",
          "type": "uint256"
        }
      ],
      "stateMutability": "view",
      "type": "function"
    },
    {
      "inputs": [],
      "name": "owner",
      "outputs": [
        {
          "internalType": "address",
          "name": "",
          "type": "address"
        }
      ],
      "stateMutability": "view",
      "type": "function"
    },
    {
      "inputs": [
        {
          "internalType": "uint256",
          "name": "tokenId",
          "type": "uint256"
        }
      ],
      "name": "ownerOf",
      "outputs": [
        {
          "internalType": "address",
          "name": "",
          "type": "address"
        }
      ],
      "stateMutability": "view",
      "type": "function"
    },
    {
      "inputs": [],
      "name": "renounceOwnership",
      "outputs": [],
      "stateMutability": "nonpayable",
      "type": "function"
    },
    {
      "inputs": [
        {
          "internalType": "address",
          "name": "from",
          "type": "address"
        },
        {
          "internalType": "address",
          "name": "to",
          "type": "address"
        },
        {
          "internalType": "uint256",
          "name": "tokenId",
          "type": "uint256"
        }
      ],
      "name": "safeTransferFrom",
      "outputs": [],
      "stateMutability": "nonpayable",
      "type": "function"
    },
    {
      "inputs": [
        {
          "internalType": "address",
          "name": "from",
          "type": "address"
        },
        {
          "internalType": "address",
          "name": "to",
          "type": "address"
        },
        {
          "internalType": "uint256",
          "name": "tokenId",
          "type": "uint256"
        },
        {
          "internalType": "bytes",
          "name": "data",
          "type": "bytes"
        }
      ],
      "name": "safeTransferFrom",
      "outputs": [],
      "stateMutability": "nonpayable",
      "type": "function"
    },
    {
      "inputs": [
        {
          "internalType": "address",
          "name": "operator",
          "type": "address"
        },
        {
          "internalType": "bool",
          "name": "approved",
          "type": "bool"
        }
      ],
      "name": "setApprovalForAll",
      "outputs": [],
      "stateMutability": "nonpayable",
      "type": "function"
    },
    {
      "inputs": [
        {
          "internalType": "bytes4",
          "name": "interfaceId",
          "type": "bytes4"
        }
      ],
      "name": "supportsInterface",
      "outputs": [
        {
          "internalType": "bool",
          "name": "",
          "type": "bool"
        }
      ],
      "stateMutability": "view",
      "type": "function"
    },
    {
      "inputs": [],
      "name": "symbol",
      "outputs": [
        {
          "internalType": "string",
          "name": "",
          "type": "string"
        }
      ],
      "stateMutability": "view",
      "type": "function"
    },
    {
      "inputs": [],
      "name": "token",
      "outputs": [
        {
          "internalType": "contract BlockTalkToken",
          "name": "",
          "type": "address"
        }
      ],
      "stateMutability": "view",
      "type": "function"
    },
    {
      "inputs": [
        {
          "internalType": "uint256",
          "name": "tokenId",
          "type": "uint256"
        }
      ],
      "name": "tokenURI",
      "outputs": [
        {
          "internalType": "string",
          "name": "",
          "type": "string"
        }
      ],
      "stateMutability": "view",
      "type": "function"
    },
    {
      "inputs": [
        {
          "internalType": "address",
          "name": "from",
          "type": "address"
        },
        {
          "internalType": "address",
          "name": "to",
          "type": "address"
        },
        {
          "internalType": "uint256",
          "name": "tokenId",
          "type": "uint256"
        }
      ],
      "name": "transferFrom",
      "outputs": [],
      "stateMutability": "nonpayable",
      "type": "function"
    },
    {
      "inputs": [
        {
          "internalType": "address",
          "name": "newOwner",
          "type": "address"
        }
      ],
      "name": "transferOwnership",
      "outputs": [],
      "stateMutability": "nonpayable",
      "type": "function"
    }
  ],
  "bytecode": "0x60806040523480156200001157600080fd5b5060405162002b4338038062002b438339818101604052810190620000379190620002dd565b336040518060400160405280600d81526020017f426c6f636b54616c6b204e4654000000000000000000000000000000000000008152506040518060400160405280600681526020017f42544b4e465400000000000000000000000000000000000000000000000000008152508160009081620000b5919062000589565b508060019081620000c7919062000589565b505050600073ffffffffffffffffffffffffffffffffffffffff168173ffffffffffffffffffffffffffffffffffffffff16036200013f5760006040517f1e4fbdf700000000000000000000000000000000000000000000000000000000815260040162000136919062000681565b60405180910390fd5b62000150816200019960201b60201c565b5080600760006101000a81548173ffffffffffffffffffffffffffffffffffffffff021916908373ffffffffffffffffffffffffffffffffffffffff160217905550506200069e565b6000600660009054906101000a900473ffffffffffffffffffffffffffffffffffffffff16905081600660006101000a81548173ffffffffffffffffffffffffffffffffffffffff021916908373ffffffffffffffffffffffffffffffffffffffff1602179055508173ffffffffffffffffffffffffffffffffffffffff168173ffffffffffffffffffffffffffffffffffffffff167f8be0079c531659141344cd1fd0a4f28419497f9722a3daafe3b4186f6b6457e060405160405180910390a35050565b600080fd5b600073ffffffffffffffffffffffffffffffffffffffff82169050919050565b6000620002918262000264565b9050919050565b6000620002a58262000284565b9050919050565b620002b78162000298565b8114620002c357600080fd5b50565b600081519050620002d781620002ac565b92915050565b600060208284031215620002f657620002f56200025f565b5b60006200030684828501620002c6565b91505092915050565b600081519050919050565b7f4e487b7100000000000000000000000000000000000000000000000000000000600052604160045260246000fd5b7f4e487b7100000000000000000000000000000000000000000000000000000000600052602260045260246000fd5b600060028204905060018216806200039157607f821691505b602082108103620003a757620003a662000349565b5b50919050565b60008190508160005260206000209050919050565b60006020601f8301049050919050565b600082821b905092915050565b600060088302620004117fffffffffffffffffffffffffffffffffffffffffffffffffffffffffffffffff82620003d2565b6200041d8683620003d2565b95508019841693508086168417925050509392505050565b6000819050919050565b6000819050919050565b60006200046a620004646200045e8462000435565b6200043f565b62000435565b9050919050565b6000819050919050565b620004868362000449565b6200049e620004958262000471565b848454620003df565b825550505050565b600090565b620004b5620004a6565b620004c28184846200047b565b505050565b5b81811015620004ea57620004de600082620004ab565b600181019050620004c8565b5050565b601f82111562000539576200050381620003ad565b6200050e84620003c2565b810160208510156200051e578190505b620005366200052d85620003c2565b830182620004c7565b50505b505050565b600082821c905092915050565b60006200055e600019846008026200053e565b1980831691505092915050565b60006200057983836200054b565b9150826002028217905092915050565b62000594826200030f565b67ffffffffffffffff811115620005b057620005af6200031a565b5b620005bc825462000378565b620005c9828285620004ee565b600060209050601f831160018114620006015760008415620005ec578287015190505b620005f885826200056b565b86555062000668565b601f1984166200061186620003ad565b60005b828110156200063b5784890151825560018201915060208501945060208101905062000614565b868310156200065b578489015162000657601f8916826200054b565b8355505b6001600288020188555050505b505050505050565b6200067b8162000284565b82525050565b600060208201905062000698600083018462000670565b92915050565b61249580620006ae6000396000f3fe608060405234801561001057600080fd5b506004361061012c5760003560e01c8063715018a6116100ad578063b88d4fde11610071578063b88d4fde1461030b578063c87b56dd14610327578063e985e9c514610357578063f2fde38b14610387578063fc0c546a146103a35761012c565b8063715018a61461028b57806375794a3c146102955780638da5cb5b146102b357806395d89b41146102d1578063a22cb465146102ef5761012c565b806323b872dd116100f457806323b872dd146101d55780633aa35ee0146101f157806342842e0e1461020f5780636352211e1461022b57806370a082311461025b5761012c565b806301ffc9a71461013157806306fdde0314610161578063081812fc1461017f578063095ea7b3146101af57806314f710fe146101cb575b600080fd5b61014b60048036038101906101469190611ac7565b6103c1565b6040516101589190611b0f565b60405180910390f35b6101696104a3565b6040516101769190611bba565b60405180910390f35b61019960048036038101906101949190611c12565b610535565b6040516101a69190611c80565b60405180910390f35b6101c960048036038101906101c49190611cc7565b610551565b005b6101d3610567565b005b6101ef60048036038101906101ea9190611d07565b610720565b005b6101f9610822565b6040516102069190611d69565b60405180910390f35b61022960048036038101906102249190611d07565b61082f565b005b61024560048036038101906102409190611c12565b61084f565b6040516102529190611c80565b60405180910390f35b61027560048036038101906102709190611d84565b610861565b6040516102829190611d69565b60405180910390f35b61029361091b565b005b61029d61092f565b6040516102aa9190611d69565b60405180910390f35b6102bb610935565b6040516102c89190611c80565b60405180910390f35b6102d961095f565b6040516102e69190611bba565b60405180910390f35b61030960048036038101906103049190611ddd565b6109f1565b005b61032560048036038101906103209190611f52565b610a07565b005b610341600480360381019061033c9190611c12565b610a24565b60405161034e9190611bba565b60405180910390f35b610371600480360381019061036c9190611fd5565b610a8d565b60405161037e9190611b0f565b60405180910390f35b6103a1600480360381019061039c9190611d84565b610b21565b005b6103ab610ba7565b6040516103b89190612074565b60405180910390f35b60007f80ac58cd000000000000000000000000000000000000000000000000000000007bffffffffffffffffffffffffffffffffffffffffffffffffffffffff1916827bffffffffffffffffffffffffffffffffffffffffffffffffffffffff1916148061048c57507f5b5e139f000000000000000000000000000000000000000000000000000000007bffffffffffffffffffffffffffffffffffffffffffffffffffffffff1916827bffffffffffffffffffffffffffffffffffffffffffffffffffffffff1916145b8061049c575061049b82610bcd565b5b9050919050565b6060600080546104b2906120be565b80601f01602080910402602001604051908101604052809291908181526020018280546104de906120be565b801561052b5780601f106105005761010080835404028352916020019161052b565b820191906000526020600020905b81548152906001019060200180831161050e57829003601f168201915b5050505050905090565b600061054082610c37565b5061054a82610cbf565b9050919050565b610563828261055e610cfc565b610d04565b5050565b68056bc75e2d63100000600760009054906101000a900473ffffffffffffffffffffffffffffffffffffffff1673ffffffffffffffffffffffffffffffffffffffff166370a08231336040518263ffffffff1660e01b81526004016105cc9190611c80565b602060405180830381865afa1580156105e9573d6000803e3d6000fd5b505050506040513d601f19601f8201168201806040525081019061060d9190612104565b101561064e576040517f08c379a00000000000000000000000000000000000000000000000000000000081526004016106459061217d565b60405180910390fd5b600760009054906101000a900473ffffffffffffffffffffffffffffffffffffffff1673ffffffffffffffffffffffffffffffffffffffff166323b872dd333068056bc75e2d631000006040518463ffffffff1660e01b81526004016106b69392919061219d565b6020604051808303816000875af11580156106d5573d6000803e3d6000fd5b505050506040513d601f19601f820116820180604052508101906106f991906121e9565b5061070633600854610d16565b6008600081548092919061071990612245565b9190505550565b600073ffffffffffffffffffffffffffffffffffffffff168273ffffffffffffffffffffffffffffffffffffffff16036107925760006040517f64a0ae920000000000000000000000000000000000000000000000000000000081526004016107899190611c80565b60405180910390fd5b60006107a683836107a1610cfc565b610e0f565b90508373ffffffffffffffffffffffffffffffffffffffff168173ffffffffffffffffffffffffffffffffffffffff161461081c578382826040517f64283d7b0000000000000000000000000000000000000000000000000000000081526004016108139392919061228d565b60405180910390fd5b50505050565b68056bc75e2d6310000081565b61084a83838360405180602001604052806000815250610a07565b505050565b600061085a82610c37565b9050919050565b60008073ffffffffffffffffffffffffffffffffffffffff168273ffffffffffffffffffffffffffffffffffffffff16036108d45760006040517f89c62b640000000000000000000000000000000000000000000000000000000081526004016108cb9190611c80565b60405180910390fd5b600360008373ffffffffffffffffffffffffffffffffffffffff1673ffffffffffffffffffffffffffffffffffffffff168152602001908152602001600020549050919050565b610923611029565b61092d60006110b0565b565b60085481565b6000600660009054906101000a900473ffffffffffffffffffffffffffffffffffffffff16905090565b60606001805461096e906120be565b80601f016020809104026020016040519081016040528092919081815260200182805461099a906120be565b80156109e75780601f106109bc576101008083540402835291602001916109e7565b820191906000526020600020905b8154815290600101906020018083116109ca57829003601f168201915b5050505050905090565b610a036109fc610cfc565b8383611176565b5050565b610a12848484610720565b610a1e848484846112e5565b50505050565b6060610a2f82610c37565b506000610a3a61149c565b90506000815111610a5a5760405180602001604052806000815250610a85565b80610a64846114b3565b604051602001610a75929190612300565b6040516020818303038152906040525b915050919050565b6000600560008473ffffffffffffffffffffffffffffffffffffffff1673ffffffffffffffffffffffffffffffffffffffff16815260200190815260200160002060008373ffffffffffffffffffffffffffffffffffffffff1673ffffffffffffffffffffffffffffffffffffffff16815260200190815260200160002060009054906101000a900460ff16905092915050565b610b29611029565b600073ffffffffffffffffffffffffffffffffffffffff168173ffffffffffffffffffffffffffffffffffffffff1603610b9b5760006040517f1e4fbdf7000000000000000000000000000000000000000000000000000000008152600401610b929190611c80565b60405180910390fd5b610ba4816110b0565b50565b600760009054906101000a900473ffffffffffffffffffffffffffffffffffffffff1681565b60007f01ffc9a7000000000000000000000000000000000000000000000000000000007bffffffffffffffffffffffffffffffffffffffffffffffffffffffff1916827bffffffffffffffffffffffffffffffffffffffffffffffffffffffff1916149050919050565b600080610c4383611581565b9050600073ffffffffffffffffffffffffffffffffffffffff168173ffffffffffffffffffffffffffffffffffffffff1603610cb657826040517f7e273289000000000000000000000000000000000000000000000000000000008152600401610cad9190611d69565b60405180910390fd5b80915050919050565b60006004600083815260200190815260200160002060009054906101000a900473ffffffffffffffffffffffffffffffffffffffff169050919050565b600033905090565b610d1183838360016115be565b505050565b600073ffffffffffffffffffffffffffffffffffffffff168273ffffffffffffffffffffffffffffffffffffffff1603610d885760006040517f64a0ae92000000000000000000000000000000000000000000000000000000008152600401610d7f9190611c80565b60405180910390fd5b6000610d9683836000610e0f565b9050600073ffffffffffffffffffffffffffffffffffffffff168173ffffffffffffffffffffffffffffffffffffffff1614610e0a5760006040517f73c6ac6e000000000000000000000000000000000000000000000000000000008152600401610e019190611c80565b60405180910390fd5b505050565b600080610e1b84611581565b9050600073ffffffffffffffffffffffffffffffffffffffff168373ffffffffffffffffffffffffffffffffffffffff1614610e5d57610e5c818486611783565b5b600073ffffffffffffffffffffffffffffffffffffffff168173ffffffffffffffffffffffffffffffffffffffff1614610eee57610e9f6000856000806115be565b6001600360008373ffffffffffffffffffffffffffffffffffffffff1673ffffffffffffffffffffffffffffffffffffffff168152602001908152602001600020600082825403925050819055505b600073ffffffffffffffffffffffffffffffffffffffff168573ffffffffffffffffffffffffffffffffffffffff1614610f71576001600360008773ffffffffffffffffffffffffffffffffffffffff1673ffffffffffffffffffffffffffffffffffffffff168152602001908152602001600020600082825401925050819055505b846002600086815260200190815260200160002060006101000a81548173ffffffffffffffffffffffffffffffffffffffff021916908373ffffffffffffffffffffffffffffffffffffffff160217905550838573ffffffffffffffffffffffffffffffffffffffff168273ffffffffffffffffffffffffffffffffffffffff167fddf252ad1be2c89b69c2b068fc378daa952ba7f163c4a11628f55a4df523b3ef60405160405180910390a4809150509392505050565b611031610cfc565b73ffffffffffffffffffffffffffffffffffffffff1661104f610935565b73ffffffffffffffffffffffffffffffffffffffff16146110ae57611072610cfc565b6040517f118cdaa70000000000000000000000000000000000000000000000000000000081526004016110a59190611c80565b60405180910390fd5b565b6000600660009054906101000a900473ffffffffffffffffffffffffffffffffffffffff16905081600660006101000a81548173ffffffffffffffffffffffffffffffffffffffff021916908373ffffffffffffffffffffffffffffffffffffffff1602179055508173ffffffffffffffffffffffffffffffffffffffff168173ffffffffffffffffffffffffffffffffffffffff167f8be0079c531659141344cd1fd0a4f28419497f9722a3daafe3b4186f6b6457e060405160405180910390a35050565b600073ffffffffffffffffffffffffffffffffffffffff168273ffffffffffffffffffffffffffffffffffffffff16036111e757816040517f5b08ba180000000000000000000000000000000000000000000000000000000081526004016111de9190611c80565b60405180910390fd5b80600560008573ffffffffffffffffffffffffffffffffffffffff1673ffffffffffffffffffffffffffffffffffffffff16815260200190815260200160002060008473ffffffffffffffffffffffffffffffffffffffff1673ffffffffffffffffffffffffffffffffffffffff16815260200190815260200160002060006101000a81548160ff0219169083151502179055508173ffffffffffffffffffffffffffffffffffffffff168373ffffffffffffffffffffffffffffffffffffffff167f17307eab39ab6107e8899845ad3d59bd9653f200f220920489ca2b5937696c31836040516112d89190611b0f565b60405180910390a3505050565b60008373ffffffffffffffffffffffffffffffffffffffff163b1115611496578273ffffffffffffffffffffffffffffffffffffffff1663150b7a02611329610cfc565b8685856040518563ffffffff1660e01b815260040161134b9493929190612379565b6020604051808303816000875af192505050801561138757506040513d601f19601f8201168201806040525081019061138491906123da565b60015b61140b573d80600081146113b7576040519150601f19603f3d011682016040523d82523d6000602084013e6113bc565b606091505b50600081510361140357836040517f64a0ae920000000000000000000000000000000000000000000000000000000081526004016113fa9190611c80565b60405180910390fd5b805181602001fd5b63150b7a0260e01b7bffffffffffffffffffffffffffffffffffffffffffffffffffffffff1916817bffffffffffffffffffffffffffffffffffffffffffffffffffffffff19161461149457836040517f64a0ae9200000000000000000000000000000000000000000000000000000000815260040161148b9190611c80565b60405180910390fd5b505b50505050565b606060405180602001604052806000815250905090565b6060600060016114c284611847565b01905060008167ffffffffffffffff8111156114e1576114e0611e27565b5b6040519080825280601f01601f1916602001820160405280156115135781602001600182028036833780820191505090505b509050600082602001820190505b600115611576578080600190039150507f3031323334353637383961626364656600000000000000000000000000000000600a86061a8153600a858161156a57611569612407565b5b04945060008503611521575b819350505050919050565b60006002600083815260200190815260200160002060009054906101000a900473ffffffffffffffffffffffffffffffffffffffff169050919050565b80806115f75750600073ffffffffffffffffffffffffffffffffffffffff168273ffffffffffffffffffffffffffffffffffffffff1614155b1561172b57600061160784610c37565b9050600073ffffffffffffffffffffffffffffffffffffffff168373ffffffffffffffffffffffffffffffffffffffff161415801561167257508273ffffffffffffffffffffffffffffffffffffffff168173ffffffffffffffffffffffffffffffffffffffff1614155b801561168557506116838184610a8d565b155b156116c757826040517fa9fbf51f0000000000000000000000000000000000000000000000000000000081526004016116be9190611c80565b60405180910390fd5b811561172957838573ffffffffffffffffffffffffffffffffffffffff168273ffffffffffffffffffffffffffffffffffffffff167f8c5be1e5ebec7d5bd14f71427d1e84f3dd0314c0f7b2291e5b200ac8c7c3b92560405160405180910390a45b505b836004600085815260200190815260200160002060006101000a81548173ffffffffffffffffffffffffffffffffffffffff021916908373ffffffffffffffffffffffffffffffffffffffff16021790555050505050565b61178e83838361199a565b61184257600073ffffffffffffffffffffffffffffffffffffffff168373ffffffffffffffffffffffffffffffffffffffff160361180357806040517f7e2732890000000000000000000000000000000000000000000000000000000081526004016117fa9190611d69565b60405180910390fd5b81816040517f177e802f000000000000000000000000000000000000000000000000000000008152600401611839929190612436565b60405180910390fd5b505050565b600080600090507a184f03e93ff9f4daa797ed6e38ed64bf6a1f01000000000000000083106118a5577a184f03e93ff9f4daa797ed6e38ed64bf6a1f010000000000000000838161189b5761189a612407565b5b0492506040810190505b6d04ee2d6d415b85acef810000000083106118e2576d04ee2d6d415b85acef810000000083816118d8576118d7612407565b5b0492506020810190505b662386f26fc10000831061191157662386f26fc10000838161190757611906612407565b5b0492506010810190505b6305f5e100831061193a576305f5e10083816119305761192f612407565b5b0492506008810190505b612710831061195f57612710838161195557611954612407565b5b0492506004810190505b60648310611982576064838161197857611977612407565b5b0492506002810190505b600a8310611991576001810190505b80915050919050565b60008073ffffffffffffffffffffffffffffffffffffffff168373ffffffffffffffffffffffffffffffffffffffff1614158015611a5257508273ffffffffffffffffffffffffffffffffffffffff168473ffffffffffffffffffffffffffffffffffffffff161480611a135750611a128484610a8d565b5b80611a5157508273ffffffffffffffffffffffffffffffffffffffff16611a3983610cbf565b73ffffffffffffffffffffffffffffffffffffffff16145b5b90509392505050565b6000604051905090565b600080fd5b600080fd5b60007fffffffff0000000000000000000000000000000000000000000000000000000082169050919050565b611aa481611a6f565b8114611aaf57600080fd5b50565b600081359050611ac181611a9b565b92915050565b600060208284031215611add57611adc611a65565b5b6000611aeb84828501611ab2565b91505092915050565b60008115159050919050565b611b0981611af4565b82525050565b6000602082019050611b246000830184611b00565b92915050565b600081519050919050565b600082825260208201905092915050565b60005b83811015611b64578082015181840152602081019050611b49565b60008484015250505050565b6000601f19601f8301169050919050565b6000611b8c82611b2a565b611b968185611b35565b9350611ba6818560208601611b46565b611baf81611b70565b840191505092915050565b60006020820190508181036000830152611bd48184611b81565b905092915050565b6000819050919050565b611bef81611bdc565b8114611bfa57600080fd5b50565b600081359050611c0c81611be6565b92915050565b600060208284031215611c2857611c27611a65565b5b6000611c3684828501611bfd565b91505092915050565b600073ffffffffffffffffffffffffffffffffffffffff82169050919050565b6000611c6a82611c3f565b9050919050565b611c7a81611c5f565b82525050565b6000602082019050611c956000830184611c71565b92915050565b611ca481611c5f565b8114611caf57600080fd5b50565b600081359050611cc181611c9b565b92915050565b60008060408385031215611cde57611cdd611a65565b5b6000611cec85828601611cb2565b9250506020611cfd85828601611bfd565b9150509250929050565b600080600060608486031215611d2057611d1f611a65565b5b6000611d2e86828701611cb2565b9350506020611d3f86828701611cb2565b9250506040611d5086828701611bfd565b9150509250925092565b611d6381611bdc565b82525050565b6000602082019050611d7e6000830184611d5a565b92915050565b600060208284031215611d9a57611d99611a65565b5b6000611da884828501611cb2565b91505092915050565b611dba81611af4565b8114611dc557600080fd5b50565b600081359050611dd781611db1565b92915050565b60008060408385031215611df457611df3611a65565b5b6000611e0285828601611cb2565b9250506020611e1385828601611dc8565b9150509250929050565b600080fd5b600080fd5b7f4e487b7100000000000000000000000000000000000000000000000000000000600052604160045260246000fd5b611e5f82611b70565b810181811067ffffffffffffffff82111715611e7e57611e7d611e27565b5b80604052505050565b6000611e91611a5b565b9050611e9d8282611e56565b919050565b600067ffffffffffffffff821115611ebd57611ebc611e27565b5b611ec682611b70565b9050602081019050919050565b82818337600083830152505050565b6000611ef5611ef084611ea2565b611e87565b905082815260208101848484011115611f1157611f10611e22565b5b611f1c848285611ed3565b509392505050565b600082601f830112611f3957611f38611e1d565b5b8135611f49848260208601611ee2565b91505092915050565b60008060008060808587031215611f6c57611f6b611a65565b5b6000611f7a87828801611cb2565b9450506020611f8b87828801611cb2565b9350506040611f9c87828801611bfd565b925050606085013567ffffffffffffffff811115611fbd57611fbc611a6a565b5b611fc987828801611f24565b91505092959194509250565b60008060408385031215611fec57611feb611a65565b5b6000611ffa85828601611cb2565b925050602061200b85828601611cb2565b9150509250929050565b6000819050919050565b600061203a61203561203084611c3f565b612015565b611c3f565b9050919050565b600061204c8261201f565b9050919050565b600061205e82612041565b9050919050565b61206e81612053565b82525050565b60006020820190506120896000830184612065565b92915050565b7f4e487b7100000000000000000000000000000000000000000000000000000000600052602260045260246000fd5b600060028204905060018216806120d657607f821691505b6020821081036120e9576120e861208f565b5b50919050565b6000815190506120fe81611be6565b92915050565b60006020828403121561211a57612119611a65565b5b6000612128848285016120ef565b91505092915050565b7f4e6f7420656e6f7567682042544b20746f6b656e730000000000000000000000600082015250565b6000612167601583611b35565b915061217282612131565b602082019050919050565b600060208201905081810360008301526121968161215a565b9050919050565b60006060820190506121b26000830186611c71565b6121bf6020830185611c71565b6121cc6040830184611d5a565b949350505050565b6000815190506121e381611db1565b92915050565b6000602082840312156121ff576121fe611a65565b5b600061220d848285016121d4565b91505092915050565b7f4e487b7100000000000000000000000000000000000000000000000000000000600052601160045260246000fd5b600061225082611bdc565b91507fffffffffffffffffffffffffffffffffffffffffffffffffffffffffffffffff820361228257612281612216565b5b600182019050919050565b60006060820190506122a26000830186611c71565b6122af6020830185611d5a565b6122bc6040830184611c71565b949350505050565b600081905092915050565b60006122da82611b2a565b6122e481856122c4565b93506122f4818560208601611b46565b80840191505092915050565b600061230c82856122cf565b915061231882846122cf565b91508190509392505050565b600081519050919050565b600082825260208201905092915050565b600061234b82612324565b612355818561232f565b9350612365818560208601611b46565b61236e81611b70565b840191505092915050565b600060808201905061238e6000830187611c71565b61239b6020830186611c71565b6123a86040830185611d5a565b81810360608301526123ba8184612340565b905095945050505050565b6000815190506123d481611a9b565b92915050565b6000602082840312156123f0576123ef611a65565b5b60006123fe848285016123c5565b91505092915050565b7f4e487b7100000000000000000000000000000000000000000000000000000000600052601260045260246000fd5b600060408201905061244b6000830185611c71565b6124586020830184611d5a565b939250505056fea2646970667358221220111c07d9bd28d80aae75277de375497a5d120cd615bdd7dd4c3b3141435a7a3264736f6c63430008180033",
  "linkReferences": {},
  "deployedLinkReferences": {}
}