{
  "_format": "hh-sol-artifact-1",
  "contractName": "BlockTalkContract",
  "sourceName": "contracts/BlockTalk.sol",
  "abi": [
    {
      "inputs": [
        {
          "internalType": "contract BlockTalkToken",
          "name": "_token",
          "type": "address"
        }
      ],
      "stateMutability": "nonpayable",
      "type": "constructor"
    },
    {
      "anonymous": false,
      "inputs": [
        {
          "indexed": false,
          "internalType": "address",
          "name": "recipient",
          "type": "address"
        },
        {
          "indexed": false,
          "internalType": "uint256",
          "name": "tweetId",
          "type": "uint256"
        }
      ],
      "name": "AddTweet",
      "type": "event"
    },
    {
      "anonymous": false,
      "inputs": [
        {
          "indexed": false,
          "internalType": "uint256",
          "name": "tweetId",
          "type": "uint256"
        },
        {
          "indexed": false,
          "internalType": "bool",
          "name": "isDeleted",
          "type": "bool"
        }
      ],
      "name": "DeleteTweet",
      "type": "event"
    },
    {
      "anonymous": false,
      "inputs": [
        {
          "indexed": false,
          "internalType": "uint256",
          "name": "tweetId",
          "type": "uint256"
        },
        {
          "indexed": false,
          "internalType": "uint256",
          "name": "reward",
          "type": "uint256"
        }
      ],
      "name": "Rewards",
      "type": "event"
    },
    {
      "anonymous": false,
      "inputs": [
        {
          "indexed": true,
          "internalType": "address",
          "name": "user",
          "type": "address"
        },
        {
          "indexed": false,
          "internalType": "uint256",
          "name": "tweetId",
          "type": "uint256"
        },
        {
          "indexed": false,
          "internalType": "bool",
          "name": "isUpvote",
          "type": "bool"
        }
      ],
      "name": "Vote",
      "type": "event"
    },
    {
      "inputs": [],
      "name": "REWARD_DIFF",
      "outputs": [
        {
          "internalType": "uint256",
          "name": "",
          "type": "uint256"
        }
      ],
      "stateMutability": "view",
      "type": "function"
    },
    {
      "inputs": [
        {
          "internalType": "string",
          "name": "title",
          "type": "string"
        },
        {
          "internalType": "string",
          "name": "tweetText",
          "type": "string"
        },
        {
          "internalType": "bool",
          "name": "isDeleted",
          "type": "bool"
        }
      ],
      "name": "addTweet",
      "outputs": [],
      "stateMutability": "nonpayable",
      "type": "function"
    },
    {
      "inputs": [
        {
          "internalType": "string",
          "name": "title",
          "type": "string"
        },
        {
          "internalType": "string",
          "name": "tweetText",
          "type": "string"
        },
        {
          "internalType": "string[]",
          "name": "tags",
          "type": "string[]"
        }
      ],
      "name": "addTweetWithHashtags",
      "outputs": [],
      "stateMutability": "nonpayable",
      "type": "function"
    },
    {
      "inputs": [
        {
          "internalType": "uint256",
          "name": "tweetId",
          "type": "uint256"
        },
        {
          "internalType": "bool",
          "name": "isDeleted",
          "type": "bool"
        }
      ],
      "name": "deleteTweet",
      "outputs": [],
      "stateMutability": "nonpayable",
      "type": "function"
    },
    {
      "inputs": [
        {
          "internalType": "uint256",
          "name": "tweetId",
          "type": "uint256"
        }
      ],
      "name": "downvote",
      "outputs": [],
      "stateMutability": "nonpayable",
      "type": "function"
    },
    {
      "inputs": [],
      "name": "getAllTweets",
      "outputs": [
        {
          "components": [
            {
              "internalType": "uint256",
              "name": "id",
              "type": "uint256"
            },
            {
              "internalType": "address",
              "name": "username",
              "type": "address"
            },
            {
              "internalType": "string",
              "name": "title",
              "type": "string"
            },
            {
              "internalType": "string",
              "name": "tweetText",
              "type": "string"
            },
            {
              "internalType": "bool",
              "name": "isDeleted",
              "type": "bool"
            },
            {
              "internalType": "uint256",
              "name": "upvote",
              "type": "uint256"
            },
            {
              "internalType": "uint256",
              "name": "downvote",
              "type": "uint256"
            },
            {
              "internalType": "uint256",
              "name": "time",
              "type": "uint256"
            },
            {
              "internalType": "uint256",
              "name": "reward",
              "type": "uint256"
            }
          ],
          "internalType": "struct BlockTalkContract.TweetView[]",
          "name": "",
          "type": "tuple[]"
        }
      ],
      "stateMutability": "view",
      "type": "function"
    },
    {
      "inputs": [],
      "name": "getTrendingTweets",
      "outputs": [
        {
          "components": [
            {
              "internalType": "uint256",
              "name": "id",
              "type": "uint256"
            },
            {
              "internalType": "address",
              "name": "username",
              "type": "address"
            },
            {
              "internalType": "string",
              "name": "title",
              "type": "string"
            },
            {
              "internalType": "string",
              "name": "tweetText",
              "type": "string"
            },
            {
              "internalType": "bool",
              "name": "isDeleted",
              "type": "bool"
            },
            {
              "internalType": "uint256",
              "name": "upvote",
              "type": "uint256"
            },
            {
              "internalType": "uint256",
              "name": "downvote",
              "type": "uint256"
            },
            {
              "internalType": "uint256",
              "name": "time",
              "type": "uint256"
            },
            {
              "internalType": "uint256",
              "name": "reward",
              "type": "uint256"
            }
          ],
          "internalType": "struct BlockTalkContract.TweetView[]",
          "name": "",
          "type": "tuple[]"
        }
      ],
      "stateMutability": "view",
      "type": "function"
    },
    {
      "inputs": [
        {
          "internalType": "string",
          "name": "",
          "type": "string"
        },
        {
          "internalType": "uint256",
          "name": "",
          "type": "uint256"
        }
      ],
      "name": "hashtags",
      "outputs": [
        {
          "internalType": "uint256",
          "name": "",
          "type": "uint256"
        }
      ],
      "stateMutability": "view",
      "type": "function"
    },
    {
      "inputs": [],
      "name": "myTweets",
      "outputs": [
        {
          "components": [
            {
              "internalType": "uint256",
              "name": "id",
              "type": "uint256"
            },
            {
              "internalType": "address",
              "name": "username",
              "type": "address"
            },
            {
              "internalType": "string",
              "name": "title",
              "type": "string"
            },
            {
              "internalType": "string",
              "name": "tweetText",
              "type": "string"
            },
            {
              "internalType": "bool",
              "name": "isDeleted",
              "type": "bool"
            },
            {
              "internalType": "uint256",
              "name": "upvote",
              "type": "uint256"
            },
            {
              "internalType": "uint256",
              "name": "downvote",
              "type": "uint256"
            },
            {
              "internalType": "uint256",
              "name": "time",
              "type": "uint256"
            },
            {
              "internalType": "uint256",
              "name": "reward",
              "type": "uint256"
            }
          ],
          "internalType": "struct BlockTalkContract.TweetView[]",
          "name": "",
          "type": "tuple[]"
        }
      ],
      "stateMutability": "view",
      "type": "function"
    },
    {
      "inputs": [],
      "name": "token",
      "outputs": [
        {
          "internalType": "contract BlockTalkToken",
          "name": "",
          "type": "address"
        }
      ],
      "stateMutability": "view",
      "type": "function"
    },
    {
      "inputs": [
        {
          "internalType": "uint256",
          "name": "tweetId",
          "type": "uint256"
        }
      ],
      "name": "upvote",
      "outputs": [],
      "stateMutability": "nonpayable",
      "type": "function"
    }
  ],
  "bytecode": "0x60806040523480156200001157600080fd5b5060405162002731380380620027318339818101604052810190620000379190620000fc565b806000806101000a81548173ffffffffffffffffffffffffffffffffffffffff021916908373ffffffffffffffffffffffffffffffffffffffff160217905550506200012e565b600080fd5b600073ffffffffffffffffffffffffffffffffffffffff82169050919050565b6000620000b08262000083565b9050919050565b6000620000c482620000a3565b9050919050565b620000d681620000b7565b8114620000e257600080fd5b50565b600081519050620000f681620000cb565b92915050565b6000602082840312156200011557620001146200007e565b5b60006200012584828501620000e5565b91505092915050565b6125f3806200013e6000396000f3fe608060405234801561001057600080fd5b50600436106100a95760003560e01c8063b5a989e811610071578063b5a989e814610154578063bb87e18814610170578063f0312a371461018e578063f31fdad4146101aa578063fc0c546a146101c6578063ff909dc3146101e4576100a9565b806301ddf070146100ae57806353256135146100ca57806371d1c48c146100e85780639c1fa1f314610118578063adea253314610136575b600080fd5b6100c860048036038101906100c391906117ad565b610200565b005b6100d26103d0565b6040516100df9190611a63565b60405180910390f35b61010260048036038101906100fd9190611bba565b6106fb565b60405161010f9190611c25565b60405180910390f35b610120610742565b60405161012d9190611c25565b60405180910390f35b61013e610747565b60405161014b9190611a63565b60405180910390f35b61016e60048036038101906101699190611c6c565b610b4a565b005b610178610e3d565b6040516101859190611a63565b60405180910390f35b6101a860048036038101906101a39190611cf7565b61115e565b005b6101c460048036038101906101bf91906117ad565b611286565b005b6101ce61144d565b6040516101db9190611d96565b60405180910390f35b6101fe60048036038101906101f99190611e97565b611471565b005b6001805490508110610247576040517f08c379a000000000000000000000000000000000000000000000000000000000815260040161023e90611f9b565b60405180910390fd5b60006001828154811061025d5761025c611fbb565b5b90600052602060002090600a020190508060050160003373ffffffffffffffffffffffffffffffffffffffff1673ffffffffffffffffffffffffffffffffffffffff16815260200190815260200160002060009054906101000a900460ff16156102fc576040517f08c379a00000000000000000000000000000000000000000000000000000000081526004016102f39061205c565b60405180910390fd5b60018160050160003373ffffffffffffffffffffffffffffffffffffffff1673ffffffffffffffffffffffffffffffffffffffff16815260200190815260200160002060006101000a81548160ff021916908315150217905550600181600601600082825461036b91906120ab565b925050819055503373ffffffffffffffffffffffffffffffffffffffff167f8d85a70fd2c5d140a4a01143492d27ff82cfad4cead313e66c53f39b0feb5e0f8360016040516103bb9291906120ee565b60405180910390a26103cc8261150b565b5050565b60606000805b60018054905081101561043657600181815481106103f7576103f6611fbb565b5b90600052602060002090600a020160040160009054906101000a900460ff1661042957818061042590612117565b9250505b80806001019150506103d6565b5060008167ffffffffffffffff81111561045357610452611a8f565b5b60405190808252806020026020018201604052801561048c57816020015b6104796116ff565b8152602001906001900390816104715790505b5090506000805b6001805490508110156106f157600181815481106104b4576104b3611fbb565b5b90600052602060002090600a020160040160009054906101000a900460ff166106e4576000600182815481106104ed576104ec611fbb565b5b90600052602060002090600a02019050604051806101200160405280826000015481526020018260010160009054906101000a900473ffffffffffffffffffffffffffffffffffffffff1673ffffffffffffffffffffffffffffffffffffffff1681526020018260020180546105629061218e565b80601f016020809104026020016040519081016040528092919081815260200182805461058e9061218e565b80156105db5780601f106105b0576101008083540402835291602001916105db565b820191906000526020600020905b8154815290600101906020018083116105be57829003601f168201915b505050505081526020018260030180546105f49061218e565b80601f01602080910402602001604051908101604052809291908181526020018280546106209061218e565b801561066d5780601f106106425761010080835404028352916020019161066d565b820191906000526020600020905b81548152906001019060200180831161065057829003601f168201915b505050505081526020018260040160009054906101000a900460ff161515815260200182600601548152602001826007015481526020018260080154815260200182600901548152508484815181106106c9576106c8611fbb565b5b602002602001018190525082806106df90612117565b935050505b8080600101915050610493565b5081935050505090565b600482805160208101820180518482526020830160208501208183528095505050505050818154811061072d57600080fd5b90600052602060002001600091509150505481565b600581565b60606000805b600180549050811015610819573373ffffffffffffffffffffffffffffffffffffffff166003600083815260200190815260200160002060009054906101000a900473ffffffffffffffffffffffffffffffffffffffff1673ffffffffffffffffffffffffffffffffffffffff161480156107f85750600181815481106107d7576107d6611fbb565b5b90600052602060002090600a020160040160009054906101000a900460ff16155b1561080c57818061080890612117565b9250505b808060010191505061074d565b5060008167ffffffffffffffff81111561083657610835611a8f565b5b60405190808252806020026020018201604052801561086f57816020015b61085c6116ff565b8152602001906001900390816108545790505b5090506000805b600180549050811015610b40573373ffffffffffffffffffffffffffffffffffffffff166003600083815260200190815260200160002060009054906101000a900473ffffffffffffffffffffffffffffffffffffffff1673ffffffffffffffffffffffffffffffffffffffff16148015610921575060018181548110610900576108ff611fbb565b5b90600052602060002090600a020160040160009054906101000a900460ff16155b15610b335760006001828154811061093c5761093b611fbb565b5b90600052602060002090600a02019050604051806101200160405280826000015481526020018260010160009054906101000a900473ffffffffffffffffffffffffffffffffffffffff1673ffffffffffffffffffffffffffffffffffffffff1681526020018260020180546109b19061218e565b80601f01602080910402602001604051908101604052809291908181526020018280546109dd9061218e565b8015610a2a5780601f106109ff57610100808354040283529160200191610a2a565b820191906000526020600020905b815481529060010190602001808311610a0d57829003601f168201915b50505050508152602001826003018054610a439061218e565b80601f0160208091040260200160405190810160405280929190818152602001828054610a6f9061218e565b8015610abc5780601f10610a9157610100808354040283529160200191610abc565b820191906000526020600020905b815481529060010190602001808311610a9f57829003601f168201915b505050505081526020018260040160009054906101000a900460ff16151581526020018260060154815260200182600701548152602001826008015481526020018260090154815250848481518110610b1857610b17611fbb565b5b60200260200101819052508280610b2e90612117565b935050505b8080600101915050610876565b5081935050505090565b600060018054905090506000600180816001815401808255809150500390600052602060002090600a02019050818160000181905550338160010160006101000a81548173ffffffffffffffffffffffffffffffffffffffff021916908373ffffffffffffffffffffffffffffffffffffffff16021790555084816002019081610bd49190612361565b5083816003019081610be69190612361565b50828160040160006101000a81548160ff021916908315150217905550600181600601819055506000816007018190555042816008018190555060008160090181905550336003600084815260200190815260200160002060006101000a81548173ffffffffffffffffffffffffffffffffffffffff021916908373ffffffffffffffffffffffffffffffffffffffff160217905550600073ffffffffffffffffffffffffffffffffffffffff16600260003373ffffffffffffffffffffffffffffffffffffffff1673ffffffffffffffffffffffffffffffffffffffff16815260200190815260200160002060000160009054906101000a900473ffffffffffffffffffffffffffffffffffffffff1673ffffffffffffffffffffffffffffffffffffffff1603610d945733600260003373ffffffffffffffffffffffffffffffffffffffff1673ffffffffffffffffffffffffffffffffffffffff16815260200190815260200160002060000160006101000a81548173ffffffffffffffffffffffffffffffffffffffff021916908373ffffffffffffffffffffffffffffffffffffffff1602179055505b600260003373ffffffffffffffffffffffffffffffffffffffff1673ffffffffffffffffffffffffffffffffffffffff1681526020019081526020016000206002018290806001815401808255809150506001900390600052602060002001600090919091909150557f8b2db9b424f26463510ef5b02c16f2465836b52081b51d2112ec76102053bdea3383604051610e2e929190612442565b60405180910390a15050505050565b6060600080600090505b600180549050811015610e9e57600f60018281548110610e6a57610e69611fbb565b5b90600052602060002090600a0201600601541115610e91578180610e8d90612117565b9250505b8080600101915050610e47565b5060008167ffffffffffffffff811115610ebb57610eba611a8f565b5b604051908082528060200260200182016040528015610ef457816020015b610ee16116ff565b815260200190600190039081610ed95790505b509050600080600090505b60018054905081101561115457600f60018281548110610f2257610f21611fbb565b5b90600052602060002090600a020160060154111561114757600060018281548110610f5057610f4f611fbb565b5b90600052602060002090600a02019050604051806101200160405280826000015481526020018260010160009054906101000a900473ffffffffffffffffffffffffffffffffffffffff1673ffffffffffffffffffffffffffffffffffffffff168152602001826002018054610fc59061218e565b80601f0160208091040260200160405190810160405280929190818152602001828054610ff19061218e565b801561103e5780601f106110135761010080835404028352916020019161103e565b820191906000526020600020905b81548152906001019060200180831161102157829003601f168201915b505050505081526020018260030180546110579061218e565b80601f01602080910402602001604051908101604052809291908181526020018280546110839061218e565b80156110d05780601f106110a5576101008083540402835291602001916110d0565b820191906000526020600020905b8154815290600101906020018083116110b357829003601f168201915b505050505081526020018260040160009054906101000a900460ff1615158152602001826006015481526020018260070154815260200182600801548152602001826009015481525084848151811061112c5761112b611fbb565b5b6020026020010181905250828061114290612117565b935050505b8080600101915050610eff565b5081935050505090565b60018054905082106111a5576040517f08c379a000000000000000000000000000000000000000000000000000000000815260040161119c90611f9b565b60405180910390fd5b3373ffffffffffffffffffffffffffffffffffffffff166003600084815260200190815260200160002060009054906101000a900473ffffffffffffffffffffffffffffffffffffffff1673ffffffffffffffffffffffffffffffffffffffff16036112825780600183815481106112205761121f611fbb565b5b90600052602060002090600a020160040160006101000a81548160ff0219169083151502179055507f2430f837dd2fb40e08c064be9db3d0cf2a7a21f8fe716a2a41787dafc66a7e2a82826040516112799291906120ee565b60405180910390a15b5050565b60018054905081106112cd576040517f08c379a00000000000000000000000000000000000000000000000000000000081526004016112c490611f9b565b60405180910390fd5b6000600182815481106112e3576112e2611fbb565b5b90600052602060002090600a020190508060050160003373ffffffffffffffffffffffffffffffffffffffff1673ffffffffffffffffffffffffffffffffffffffff16815260200190815260200160002060009054906101000a900460ff1615611382576040517f08c379a00000000000000000000000000000000000000000000000000000000081526004016113799061205c565b60405180910390fd5b60018160050160003373ffffffffffffffffffffffffffffffffffffffff1673ffffffffffffffffffffffffffffffffffffffff16815260200190815260200160002060006101000a81548160ff02191690831515021790555060018160070160008282546113f191906120ab565b925050819055503373ffffffffffffffffffffffffffffffffffffffff167f8d85a70fd2c5d140a4a01143492d27ff82cfad4cead313e66c53f39b0feb5e0f8360006040516114419291906120ee565b60405180910390a25050565b60008054906101000a900473ffffffffffffffffffffffffffffffffffffffff1681565b61147d83836000610b4a565b60005b815181101561150557600482828151811061149e5761149d611fbb565b5b60200260200101516040516114b391906124a7565b9081526020016040518091039020600180805490506114d291906124be565b90806001815401808255809150506001900390600052602060002001600090919091909150558080600101915050611480565b50505050565b60006001828154811061152157611520611fbb565b5b90600052602060002090600a0201905060006005826009015461154491906124f2565b8260070154836006015461155891906124be565b61156291906124be565b9050600581106116fa57600060058261157b9190612563565b90508083600901600082825461159191906120ab565b9250508190555060008360010160009054906101000a900473ffffffffffffffffffffffffffffffffffffffff16905081600260008373ffffffffffffffffffffffffffffffffffffffff1673ffffffffffffffffffffffffffffffffffffffff168152602001908152602001600020600101600082825461161391906120ab565b9250508190555060008054906101000a900473ffffffffffffffffffffffffffffffffffffffff1673ffffffffffffffffffffffffffffffffffffffff166340c10f1982670de0b6b3a76400008561166b91906124f2565b6040518363ffffffff1660e01b8152600401611688929190612442565b600060405180830381600087803b1580156116a257600080fd5b505af11580156116b6573d6000803e3d6000fd5b505050507f18864aac33b9ba01ccc08ab0b244dd2cbacd5368fc51c60b85b9b45e5e13fe078585600901546040516116ef929190612594565b60405180910390a150505b505050565b60405180610120016040528060008152602001600073ffffffffffffffffffffffffffffffffffffffff1681526020016060815260200160608152602001600015158152602001600081526020016000815260200160008152602001600081525090565b6000604051905090565b600080fd5b600080fd5b6000819050919050565b61178a81611777565b811461179557600080fd5b50565b6000813590506117a781611781565b92915050565b6000602082840312156117c3576117c261176d565b5b60006117d184828501611798565b91505092915050565b600081519050919050565b600082825260208201905092915050565b6000819050602082019050919050565b61180f81611777565b82525050565b600073ffffffffffffffffffffffffffffffffffffffff82169050919050565b600061184082611815565b9050919050565b61185081611835565b82525050565b600081519050919050565b600082825260208201905092915050565b60005b83811015611890578082015181840152602081019050611875565b60008484015250505050565b6000601f19601f8301169050919050565b60006118b882611856565b6118c28185611861565b93506118d2818560208601611872565b6118db8161189c565b840191505092915050565b60008115159050919050565b6118fb816118e6565b82525050565b60006101208301600083015161191a6000860182611806565b50602083015161192d6020860182611847565b506040830151848203604086015261194582826118ad565b9150506060830151848203606086015261195f82826118ad565b915050608083015161197460808601826118f2565b5060a083015161198760a0860182611806565b5060c083015161199a60c0860182611806565b5060e08301516119ad60e0860182611806565b506101008301516119c2610100860182611806565b508091505092915050565b60006119d98383611901565b905092915050565b6000602082019050919050565b60006119f9826117da565b611a0381856117e5565b935083602082028501611a15856117f6565b8060005b85811015611a515784840389528151611a3285826119cd565b9450611a3d836119e1565b925060208a01995050600181019050611a19565b50829750879550505050505092915050565b60006020820190508181036000830152611a7d81846119ee565b905092915050565b600080fd5b600080fd5b7f4e487b7100000000000000000000000000000000000000000000000000000000600052604160045260246000fd5b611ac78261189c565b810181811067ffffffffffffffff82111715611ae657611ae5611a8f565b5b80604052505050565b6000611af9611763565b9050611b058282611abe565b919050565b600067ffffffffffffffff821115611b2557611b24611a8f565b5b611b2e8261189c565b9050602081019050919050565b82818337600083830152505050565b6000611b5d611b5884611b0a565b611aef565b905082815260208101848484011115611b7957611b78611a8a565b5b611b84848285611b3b565b509392505050565b600082601f830112611ba157611ba0611a85565b5b8135611bb1848260208601611b4a565b91505092915050565b60008060408385031215611bd157611bd061176d565b5b600083013567ffffffffffffffff811115611bef57611bee611772565b5b611bfb85828601611b8c565b9250506020611c0c85828601611798565b9150509250929050565b611c1f81611777565b82525050565b6000602082019050611c3a6000830184611c16565b92915050565b611c49816118e6565b8114611c5457600080fd5b50565b600081359050611c6681611c40565b92915050565b600080600060608486031215611c8557611c8461176d565b5b600084013567ffffffffffffffff811115611ca357611ca2611772565b5b611caf86828701611b8c565b935050602084013567ffffffffffffffff811115611cd057611ccf611772565b5b611cdc86828701611b8c565b9250506040611ced86828701611c57565b9150509250925092565b60008060408385031215611d0e57611d0d61176d565b5b6000611d1c85828601611798565b9250506020611d2d85828601611c57565b9150509250929050565b6000819050919050565b6000611d5c611d57611d5284611815565b611d37565b611815565b9050919050565b6000611d6e82611d41565b9050919050565b6000611d8082611d63565b9050919050565b611d9081611d75565b82525050565b6000602082019050611dab6000830184611d87565b92915050565b600067ffffffffffffffff821115611dcc57611dcb611a8f565b5b602082029050602081019050919050565b600080fd5b6000611df5611df084611db1565b611aef565b90508083825260208201905060208402830185811115611e1857611e17611ddd565b5b835b81811015611e5f57803567ffffffffffffffff811115611e3d57611e3c611a85565b5b808601611e4a8982611b8c565b85526020850194505050602081019050611e1a565b5050509392505050565b600082601f830112611e7e57611e7d611a85565b5b8135611e8e848260208601611de2565b91505092915050565b600080600060608486031215611eb057611eaf61176d565b5b600084013567ffffffffffffffff811115611ece57611ecd611772565b5b611eda86828701611b8c565b935050602084013567ffffffffffffffff811115611efb57611efa611772565b5b611f0786828701611b8c565b925050604084013567ffffffffffffffff811115611f2857611f27611772565b5b611f3486828701611e69565b9150509250925092565b600082825260208201905092915050565b7f547765657420646f6573206e6f74206578697374000000000000000000000000600082015250565b6000611f85601483611f3e565b9150611f9082611f4f565b602082019050919050565b60006020820190508181036000830152611fb481611f78565b9050919050565b7f4e487b7100000000000000000000000000000000000000000000000000000000600052603260045260246000fd5b7f596f75206861766520616c726561647920766f746564206f6e2074686973207460008201527f776565742e000000000000000000000000000000000000000000000000000000602082015250565b6000612046602583611f3e565b915061205182611fea565b604082019050919050565b6000602082019050818103600083015261207581612039565b9050919050565b7f4e487b7100000000000000000000000000000000000000000000000000000000600052601160045260246000fd5b60006120b682611777565b91506120c183611777565b92508282019050808211156120d9576120d861207c565b5b92915050565b6120e8816118e6565b82525050565b60006040820190506121036000830185611c16565b61211060208301846120df565b9392505050565b600061212282611777565b91507fffffffffffffffffffffffffffffffffffffffffffffffffffffffffffffffff82036121545761215361207c565b5b600182019050919050565b7f4e487b7100000000000000000000000000000000000000000000000000000000600052602260045260246000fd5b600060028204905060018216806121a657607f821691505b6020821081036121b9576121b861215f565b5b50919050565b60008190508160005260206000209050919050565b60006020601f8301049050919050565b600082821b905092915050565b6000600883026122217fffffffffffffffffffffffffffffffffffffffffffffffffffffffffffffffff826121e4565b61222b86836121e4565b95508019841693508086168417925050509392505050565b600061225e61225961225484611777565b611d37565b611777565b9050919050565b6000819050919050565b61227883612243565b61228c61228482612265565b8484546121f1565b825550505050565b600090565b6122a1612294565b6122ac81848461226f565b505050565b5b818110156122d0576122c5600082612299565b6001810190506122b2565b5050565b601f821115612315576122e6816121bf565b6122ef846121d4565b810160208510156122fe578190505b61231261230a856121d4565b8301826122b1565b50505b505050565b600082821c905092915050565b60006123386000198460080261231a565b1980831691505092915050565b60006123518383612327565b9150826002028217905092915050565b61236a82611856565b67ffffffffffffffff81111561238357612382611a8f565b5b61238d825461218e565b6123988282856122d4565b600060209050601f8311600181146123cb57600084156123b9578287015190505b6123c38582612345565b86555061242b565b601f1984166123d9866121bf565b60005b82811015612401578489015182556001820191506020850194506020810190506123dc565b8683101561241e578489015161241a601f891682612327565b8355505b6001600288020188555050505b505050505050565b61243c81611835565b82525050565b60006040820190506124576000830185612433565b6124646020830184611c16565b9392505050565b600081905092915050565b600061248182611856565b61248b818561246b565b935061249b818560208601611872565b80840191505092915050565b60006124b38284612476565b915081905092915050565b60006124c982611777565b91506124d483611777565b92508282039050818111156124ec576124eb61207c565b5b92915050565b60006124fd82611777565b915061250883611777565b925082820261251681611777565b9150828204841483151761252d5761252c61207c565b5b5092915050565b7f4e487b7100000000000000000000000000000000000000000000000000000000600052601260045260246000fd5b600061256e82611777565b915061257983611777565b92508261258957612588612534565b5b828204905092915050565b60006040820190506125a96000830185611c16565b6125b66020830184611c16565b939250505056fea2646970667358221220976f725c59c39729e311f71f9907968cd3a688dbb025edc4dc42872b9d7044db64736f6c63430008180033",
  "linkReferences": {},
  "deployedLinkReferences": {}
}